:1000000007C1000036C1000034C1000032C1000049
:1000100030C100002EC100002CC100002AC1000028
:1000200028C1000026C1000024C1000022C1000038
:1000300020C100001EC100001CC100001AC1000048
:1000400018C1000016C1000014C1000012C1000058
:1000500010C100000EC100000CC100000C94EC0F98
:1000600008C100000C94C6130C94FC1302C10000DC
:1000700000C10000FEC00000FCC00000FAC000008B
:10008000F8C00000F6C00000F4C00000F2C000009C
:100090000C9452140C948814ECC000000C94490B7E
:1000A000E8C00000E6C00000E4C00000E2C00000BC
:1000B000E0C00000DEC00000DCC00000DAC00000CC
:1000C000D8C00000D6C000000C94660D0C94DE145D
:1000D0000C941415CEC000000C946A150C94A01555
:1000E000C8C0000000000A0B02090C0D0E0807032F
:1000F00004010000000000000000000000000000FB
:1001000000000000000000000000000000000000EF
:1001100012111000000000000000000000000000AC
:100120000000000000000000000001021020200874
:100130000810204010204080020102010804020142
:1001400001020408102040808040201008040201B1
:10015000800402018040201008040201080402010A
:100160000102040810204080010204081020408091
:1001700005050505070508080808020202020A0A23
:100180000808040404040101010101010101030341
:10019000030303030303040707070C0C0C0C0C0CEC
:1001A0000C0C0202020206060606060606060B0BE9
:1001B0000B0B0B0B0B0B000020002300260029006B
:1001C0002C002F003200000100000301060109018C
:1001D00000002200250028002B002E0031003400F2
:1001E00002010000050108010B01000021002400AC
:1001F00027002A002D003000330001010000040117
:1002000007010A014307460A2514B1143D15C91513
:1002100011241FBECFEFD1E2DEBFCDBF00E00CBF87
:1002200012E0A0E0B2E0E2E9FFE200E00BBF02C0B2
:1002300007900D92AA35B107D9F726E0AAE5B2E0FA
:1002400001C01D92A230B207E1F711E0C8E0D1E091
:1002500000E006C021970109802FFE010E9454167C
:10026000C230D10780E00807A9F70E94CD0D0C9499
:10027000C717C6CE4F925F926F927F928F929F92D6
:10028000AF92BF92CF92DF92EF92FF920F931F93A4
:10029000CF93DF93CDB7DEB76A970FB6F894DEBF82
:1002A0000FBECDBF6D837E838F83988729013A016E
:1002B000FA8EE98E4B015C01B7FE08C0B094A094A1
:1002C00090948094811C911CA11CB11C730162014B
:1002D00077FE07C0CC24DD247601C418D508E608D3
:1002E000F70895014427552729873A874B875C876C
:1002F000AA24BB24C701AA27BB278D879E87AF8767
:10030000B88BEE24FF24C701B6010E942316698B27
:100310007A8B8B8B9C8BA50194016D857E858F8557
:1003200098890E9423166D8B7E8B8F8B988FC701C7
:10033000B6010E942316AB01BC01CD88DE88EF8890
:10034000F88CD60199278827840F951FA61FB71F01
:10035000F1E0E0E030E020E084179507A607B7075A
:1003600008F0F0E0F983EA833B832C8329893A89FA
:100370004B895C897901DD24CC24C80ED91EEA1E84
:10038000FB1EC816D906EA06FB0658F489819A8135
:10039000AB81BC810196A11DB11D89839A83AB837A
:1003A000BC832D893E894F89588DCA01AA27BB2756
:1003B00029893A894B895C894A01AA24BB24880E81
:1003C000991EAA1EBB1E29853A854B855C856D85C5
:1003D0007E858F8598890E942316860E971EA81EFB
:1003E000B91E89819A81AB81BC81880E991EAA1E93
:1003F000BB1E2D813E814F81588521153105410558
:10040000510531F1411451046104710409F191E085
:1004100012161306140615060CF090E081E0141471
:100420001504160417040CF080E0981789F0F09476
:10043000E094D094C094C11CD11CE11CF11CC114E7
:10044000D104E104F10439F180949094A094B09423
:10045000D8018D929D92AD92BC921397E98DFA8D41
:10046000C082D182E282F3826A960FB6F894DEBF30
:100470000FBECDBFDF91CF911F910F91FF90EF90F5
:10048000DF90CF90BF90AF909F908F907F906F90B4
:100490005F904F900895B094A09490948094811CA4
:1004A000911CA11CB11CD4CF8F929F92AF92BF928E
:1004B000EF92FF920F931F93CF93DF9300D000D062
:1004C0001F921F92CDB7DEB74701FE0131967F0123
:1004D0008E010B5F1F4FCEDE20E230E02819390974
:1004E0006D817E818F81988504C0660F771F881F7C
:1004F000991F2A95D2F709811A812B813C8104C06A
:1005000036952795179507958A94D2F7602B712B0E
:10051000822B932B28960FB6F894DEBF0FBECDBF6B
:10052000DF91CF911F910F91FF90EF90BF90AF900F
:100530009F908F900895AF92BF92CF92DF92EF92EB
:10054000FF920F931F93CF93DF936CED75E08BEDCC
:1005500095E06BD29091DB0580912802891708F015
:1005600064C160910E0270910F028091100290910F
:1005700011020E94730E6B017C014ED281115EC18B
:10058000C701B60104D2811159C120E030E040E832
:1005900057E4C701B6010E948D0E6B017C0120E07B
:1005A00030E0A9010E94060E87FF4BC1C701B601CA
:1005B00090580E940A0E7195619571097093CC054F
:1005C0006093CB059091DC0580912902891708F092
:1005D0003DC16091060270910702809108029091DE
:1005E0000902209116023091170240911802509191
:1005F00019020E94720F0E94730E6B017C010CD2D3
:1006000081112DC1C701B601C2D1811128C120E0DD
:1006100030E040E857E4C701B6010E948D0E6B013F
:100620007C0120E030E0A9010E94060E87FF1AC17C
:10063000C701B60190580E940A0E71956195710923
:100640007093CE056093CD056DEC75E08BEC95E075
:100650002CD26FEB75E08BEB95E0DAD265ED75E0AF
:100660008FEC95E0B7D38091DB058093DD05809119
:10067000DC058093DE058091BB059091BC05A091BF
:10068000BD05B091BE058093C3059093C405A093AA
:10069000C505B093C6052091BF053091C0054091B6
:1006A000C1055091C20560911A0270911B028091A0
:1006B0001C0290911D021FE1E12EF12C00E010E0E0
:1006C000F3DE6093C7057093C8058093C9059093C6
:1006D000CA052091240230912502A091D105B09144
:1006E000D2050E945C160E94380E20E030E040E007
:1006F00053E30E94720F6093AF057093B00580932F
:10070000B1059093B2052091260230912702A09165
:10071000D305B091D4050E945C160E94380E20E0EB
:1007200030E040E053E30E94720F20911E023091AE
:100730001F0240912002509121020E94720F60938B
:10074000B3057093B4058093B5059093B6052091D9
:10075000220230912302A091D505B091D6050E94C6
:100760005C160E94380E20E030E040E854E30E941E
:10077000720F6093B7057093B8058093B905909395
:10078000BA05C091DF05D091E0058091DD0590911B
:10079000DE05DE018D939D9388E0E3ECF5E00190AA
:1007A0000D928A95E1F7DE011A9688E0EFEAF5E00E
:1007B00001900D928A95E1F78091B7059091B80567
:1007C000A091B905B091BA058A8B9B8BAC8BBD8B80
:1007D0004091E1055091E20566E170E08091DF050E
:1007E0009091E0050E946A0C6091E1057091E2052C
:1007F000FB01178AF3EEAF2EF5E0BF2EA2E4CA2E5E
:10080000B1E4EB2E01E028E130E040E050E082E08E
:100810000E94980CDF91CF911F910F91FF90EF9064
:10082000DF90CF90BF90AF900895609112027091C9
:10083000130280911402909115029BCEC12CD12CF1
:100840007601C701B6010E940A0EB8CE60910A0275
:1008500070910B0280910C0290910D02C2CEC12CBE
:10086000D12C7601C701B6010E940A0EE9CECF93C2
:10087000DF9384E090E054D0D0D0F7D0C7D198D2A5
:1008800061E070E086E190E00E948116CFEDD5E056
:100890009983888361E070E088E190E00E9481168E
:1008A0009B838A831C8240E056E960E070E082E02E
:1008B000DF91CF910C948F0CCF93DF93D5D02ED1B5
:1008C0002CD2E0D2CFEDD5E0888199810E943717F4
:1008D0008A819B810E9437171C8282E0DF91CF9131
:1008E0000C94000D60E070E080E89FE7089560E000
:1008F00070E080E89FE7089560E070E080E89FEF97
:10090000089560E070E080E89FEF089560E070E097
:1009100080EC9FEF089560E070E080EC9FEF089519
:10092000F5DF6093F0057093F1058093F2059093E5
:10093000F305F1DF6093E4057093E5058093E60528
:100940009093E705CFDF6093EC057093ED058093FE
:10095000EE059093EF05CBDF6093E8057093E90512
:100960008093EA059093EB05C7DF6093F4057093DD
:10097000F5058093F6059093F705C3DF6093F805BE
:100980007093F9058093FA059093FB050895CF9233
:10099000DF92EF92FF92CF936B017C01AC019B0140
:1009A0006091EC057091ED058091EE059091EF0559
:1009B0000E94060EC1E0882371F0A70196016091A4
:1009C000F4057091F5058091F6059091F7050E9468
:1009D000060E8111C0E08C2FCF91FF90EF90DF9039
:1009E000CF9008950F931F938B019C01002711272F
:1009F00020783F770115110520483F4749F4AB01A6
:100A0000BC016F77772781E0452B462B472B09F4F4
:100A100080E01F910F910895E5CF60E08EE20E9483
:100A2000E91160E08FE20C94E9110F931F93CF93CB
:100A3000DF938C01EB018EE20E945212019779F450
:100A400081E0F80180838FE20E945212019751F4F5
:100A500081E08883DF91CF911F910F910895F80174
:100A60001082F1CF1882F6CF089561E08CE00E94E9
:100A7000E91161E083E00E94E91161E089E00E94F0
:100A8000E91161E08DE00E94E91161E08BE00E94D4
:100A9000E91161E088E00E94E91160E089E00E94CC
:100AA000251260E088E00C9425120F931F93CF93DA
:100AB000DF938C01EB01FC018081918197FD1DC0CA
:100AC00061E08CE00E942512F80160817181772736
:100AD00083E00E94AF108881998197FD17C061E083
:100AE0008DE00E9425126881798177278BE0DF9164
:100AF000CF911F910F910C94AF1060E08CE00E9499
:100B00002512F8016081619570E0E2CF60E08DE030
:100B10000E9425126881619570E0E8CF61E089E06C
:100B20000E94251261E088E00C9425128EBD000021
:100B30000DB407FEFDCF8EB5089561E081E30E94FC
:100B4000E91161E080E30E94E91161E081E30E9424
:100B5000251261E080E30E942512E0D060E081E38D
:100B60000E94251288E8E2DF83E0E0DF61E081E3B4
:100B70000E94251260E080E30E94251288E8D6DFFB
:100B800083E0D4DF61E080E30C94251260E081E330
:100B90000E94251288E9CADF80E0C8DF80E0C6DF56
:100BA00080E0C4DF80E0C2DF61E081E30E942512C3
:100BB0008AE090E00E94421060E081E30E942512EA
:100BC00080EEB4DF61E081E30E94251260E080E303
:100BD0000E94251288E9AADF80E0A8DF80E0A6DF76
:100BE00080E0A4DF80E0A2DF61E080E30E942512C4
:100BF0008AE090E00E94421060E080E30E942512AB
:100C000080EE94DF61E080E30C94251296DFBECF86
:100C10008F929F92AF92BF92CF92DF92EF92FF920C
:100C20000F931F93CF93DF938C01EB0160E081E37F
:100C30000E94251280E67ADF80E078DFF82E80E0DF
:100C400075DFC82E80E072DFA82E80E06FDFB82E3F
:100C500061E081E30E9425128F2D90E0982F882774
:100C6000C80ED92ED11C0D2C000CEE08FF08FE2C4E
:100C7000ED2CDC2CCC24CA0CD11CE11CF11CFE2C6C
:100C8000ED2CDC2CCC24CB0CD11CE11CF11C60E045
:100C900080E30E94251280E649DF80E047DF882E4E
:100CA00080E044DF982E80E041DFA82E80E03EDF28
:100CB000B82E61E080E30E942512882D90E0982FE5
:100CC0008827890D911D092E000CAA0BBB0BBA2F8A
:100CD000A92F982F88278A0D911DA11DB11DBA2F0C
:100CE000A92F982F8827F801C082D182E282F3824F
:100CF0008B0D911DA11DB11D88839983AA83BB8390
:100D0000DF91CF911F910F91FF90EF90DF90CF90E7
:100D1000BF90AF909F908F90089536C0CF93CFB77C
:100D2000F89480915D02811127C0E5EAF1E0849199
:100D3000EFE5F1E09491E82FF0E0EE0FFF1FE651B0
:100D4000FE4FA591B491EC91E92321F461E085E394
:100D50000E94251261E085E30E94E9118CB5806153
:100D60008CBD8CB580648CBD61E084E30E94E91188
:100D700061E083E30E94E91180915D028F5F8093BF
:100D80005D02CFBFCF9108959FB7F89480915D0227
:100D9000882319F0815080935D0280915D0281115A
:100DA00005C08CB58F7B8CBD10925C029FBF0895EF
:100DB0008DE692E0E3D28EE592E0FBD062E08EE534
:100DC00092E068D060E08EE592E06ED063E08EE560
:100DD00092E074C08F929F92AF92BF92CF92DF92B7
:100DE000EF92FF920F931F93CF93DF93CDB7DEB7B0
:100DF0002C970FB6F894DEBF0FBECDBF4C015B0140
:100E0000CE0101966C01FE0133967F018E010B5FCE
:100E10001F4F9E01295F3F4FAE01475F5F4FBE01ED
:100E2000655F7F4F8EE592E053D08B859C85F40102
:100E30009183808389859A85938382838F81988526
:100E4000958384838D819E81F501918380838B813D
:100E50009C819383828389819A81958384832C9654
:100E60000FB6F894DEBF0FBECDBFDF91CF911F91BB
:100E70000F91FF90EF90DF90CF90BF90AF909F9039
:100E80008F90089508958EE592E000C028E6FC0159
:100E9000208308950F93062F23E042E06AE1FC01CE
:100EA0008081A1D10F9108950F93062F22E044E095
:100EB0006BE1FC01808197D10F9108950F93062F6C
:100EC00022E044E06CE1FC0180818DD10F91089516
:100ED0004F925F926F927F928F929F92AF92BF924A
:100EE000CF92DF92EF92FF920F931F93CF93DF93F6
:100EF000EC013B014A015901280100912A0210919D
:100F00002B029C012F5F3F4F4EE06BE388819BD00B
:100F100089819A81982789279827F3019183808373
:100F20008B819C81982789279827F401918380835E
:100F30008D819E81982789279827F5019183808349
:100F400089859A85982789279827F201918380833C
:100F50008B859C85982789279827F7019183808323
:100F60008D859E85982789279827F6019183808310
:100F7000DF91CF911F910F91FF90EF90DF90CF9075
:100F8000BF90AF909F908F907F906F905F904F90A9
:100F90000895262F46E06BE6FC018081F6C00F9392
:100FA000062F23E042E06BE6FC0180811CD10F910B
:100FB0000895CF93DF93EC0161E0F1DF60E0CE01B3
:100FC00073DF60E0CE017ADF60E0CE01DF91CF9188
:100FD000E0CFFF920F931F93CF93DF93C62F042F81
:100FE000F22E132F682F8DE692E0D1D16C2F8DE673
:100FF00092E06AD1CF2DD12F0C0F1D2F111DC017DC
:10100000D10729F069918DE692E05ED1F8CF8DE6A7
:1010100092E03AD291E0811190E0892FDF91CF9157
:101020001F910F91FF900895CF93DF931F92CDB73B
:10103000DEB749839E012F5F3F4F41E0CADF0F902B
:10104000DF91CF9108952F923F924F925F926F92CE
:101050007F928F929F92AF92BF92CF92DF92EF9248
:10106000FF920F931F93CF93DF9300D0CDB7DEB7DE
:10107000E82E69834B836901F9D74B015C01F12CA0
:101080001A822B81222E312C2801712C612C8B810C
:10109000F81608F040C06E2D8DE692E078D1698197
:1010A0008DE692E011D18DE692E0EED16E2D8DE6C7
:1010B00092E06DD1A1014F1951094132510514F04F
:1010C00040E250E06E2D8DE692E0DCD18DE692E0BC
:1010D000D1D0892BD1F00115110569F48DE692E08C
:1010E000D0D0F6019A81E90FF11D97FDFA95808322
:1010F0009F5F9A83EBCFBAD7681979098A099B0950
:10110000641575058605970548F38B81813208F0D3
:1011100080E2F80EBCCF01151105B9F0A7D7681908
:1011200079098A099B0930E020E06017710782077E
:10113000930758F02A81822F220F990B2B812817B1
:10114000190619F014F08FEF8A838A810F900F909F
:101150000F90DF91CF911F910F91FF90EF90DF9053
:10116000CF90BF90AF909F908F907F906F905F9047
:101170004F903F902F9008950F931F9389019A01EC
:1011800041E061DF1F910F910895EF92FF920F935D
:101190001F93CF93DF931F92CDB7DEB7182F062F83
:1011A000E42EF22E20912A0230912B02AE014F5FE5
:1011B0005F4FE2DF81E090E001C0880FEA94EAF738
:1011C0004981FF2069F0482B4983602F812F2CDF54
:1011D0000F90DF91CF911F910F91FF90EF900895A5
:1011E00080954823F1CFDF92EF92FF920F931F93E8
:1011F000CF93DF931F92CDB7DEB7F82EE62E142FD4
:10120000D22E20912A0230912B02AE014F5F5F4F08
:10121000B3DF882351F1812F8D19990BAC014F5FFA
:101220005F4F81E090E002C0880F991FDA94E2F7E7
:101230000197042E01C0880F0A94EAF701C0000F3D
:101240004A95EAF7482F4095998149238023482BF6
:1012500049836E2D8F2DE8DE0F90DF91CF911F9186
:101260000F91FF90EF90DF90089580E0F5CF90E030
:1012700080E0089580919D0290919E02891B990BB8
:10128000089590919E0280919D022FEF3FEF981755
:1012900048F4E92FF0E0E156FD4F208130E09F5FF8
:1012A00090939E02C9010895E0919E0280919D0253
:1012B000E81730F4F0E0E156FD4F808190E00895AA
:1012C0008FEF9FEF08950895CF93DF931F92CDB7CF
:1012D000DEB76983209179022223F9F020917A0206
:1012E000203258F021E030E0FC013383228390E08B
:1012F00080E00F90DF91CF91089580917B02E82FDD
:10130000F0E0E458FD4F998190838F5F80937B02DA
:1013100080937A0281E090E0ECCF61E0CE0101960B
:1013200081D1F8CFCF92DF92EF92FF920F931F936C
:10133000CF93DF937C01CB018A0120917902222394
:1013400089F0EB016B01C40ED51ECC15DD0561F0F3
:101350006991D701ED91FC910190F081E02DC701D9
:101360001995F3CF642F5ED1C801DF91CF911F9102
:101370000F91FF90EF90DF90CF90089510929E0212
:1013800010929D0210927B0210927A0290C081E02E
:101390008093790260939C0210927B0210927A02F1
:1013A00008950F93062F21E040917A026CE772E0D6
:1013B00080919C02E0D010927B0210927A021092EF
:1013C00079020F9108954F925F926F927F92AF9240
:1013D000BF92CF92EF92FF920F931F93CF93DF9321
:1013E0005C01F62ED42F28013901EE2009F1CFDF60
:1013F000CE2DC43008F0C3E0C150B8F028E0C29F41
:10140000C0011124A301920104C056954795379558
:1014100027958A95D2F7B901D501ED91FC910190FC
:10142000F081E02DC5011995E7CF60E0C501B9DF76
:101430004D2FD13208F040E22C2D6FE972E08F2D54
:1014400052D010929E0280939D02DF91CF911F9106
:101450000F91FF90EF90CF90BF90AF907F906F90E3
:101460005F904F900895CF92EF920F931F93C22EEB
:10147000E12C00E010E09801A6DF1F910F91EF90A2
:10148000CF90089521E0EFCF61E08BCFEDE6F2E061
:101490001382128288EE93E0A0E0B0E0848395830B
:1014A000A683B78382E392E09183808308951092AC
:1014B0002C0381E080932A031092290361E084E1E8
:1014C000C4D761E085E1C1D7E9EBF0E080818E7F90
:1014D000808380818D7F80838CE08093B80085E459
:1014E0008093BC000895413208F043C090912C03D2
:1014F0009111FCCF91E090932C0320932A032FEFBE
:101500002093BF0210920403240F209303039093AF
:101510002B0390912B03880F892B80932B038091B1
:101520002903813009F51092290380912B038093C0
:10153000BB008091BC0083FDF8CF85EC8093BC009C
:1015400080912C038130E1F380910403841710F41F
:1015500040910403A5E0B3E0962FFB018E2F891B79
:10156000841720F0842F089585EEE8CF8D91819324
:10157000F5CF40E0F7CF0F93413208F04BC0909188
:101580002C039111FCCF92E090932C0300932A033B
:101590009FEF9093BF021092040340930303362FF2
:1015A000A5E0B3E0FB019E2F931B941770F11092FE
:1015B0002B0390912B03880F892B80932B03809111
:1015C0002903813029F51092290380912B03809300
:1015D000BB008091BC0083FDF8CF85EC8093BC00FC
:1015E000222321F080912C038230D1F38091BF021D
:1015F0008F3F91F08091BF02803281F08091BF02D5
:10160000803371F084E00F91089591919D93CBCF39
:1016100085EEE4CF81E0F7CF80E0F5CF82E0F3CF35
:1016200083E0F1CF2091E102260F3327331F2132CF
:101630003105ECF420912C03FC0190E080E0243093
:1016400069F082E00895A091E1022191AC014D5131
:101650005D4FA40FB52FB11D2C930196861798F3FB
:101660008091E102680F6093E10280E0089581E0DB
:10167000089585ED8093BC008091BC0084FDFCCF73
:1016800010922C03089585EC8093BC0010922C03DB
:1016900008951F920F920FB60F9211240BB60F925E
:1016A0002F933F934F935F936F937F938F939F936A
:1016B000AF93BF93EF93FF938091B900887F8036FB
:1016C00009F44CC008F03FC0883209F4A8C028F5DE
:1016D000803109F49CC0C8F4882309F4F8C088302C
:1016E00009F495C0FF91EF91BF91AF919F918F91B8
:1016F0007F916F915F914F913F912F910F900BBE12
:101700000F900FBE0F901F901895883109F487C075
:10171000803241F78093BF0214C0803409F49CC02A
:1017200040F48033B9F38833E9F68093BF02ABDF2E
:10173000D9CF803509F484C0883509F495C0883440
:1017400089F697DFCFCF883909F48CC038F5883710
:1017500029F050F4883611F0803721F683E0809329
:101760002C031092C00257C0883809F47BC080391E
:1017700019F0803809F0B6CF8091C002803208F0AD
:1017800071C0E091C00281E08E0F8093C002809111
:10179000BB00F0E0EF53FD4F80833DC0803B39F04C
:1017A000E0F4803A09F479C0883A09F09BCF84E0EC
:1017B00080932C031092E2021092E102E091270341
:1017C000F091280319958091E10281110FC081E009
:1017D0008093E1021092E30209C0803C09F475C0D5
:1017E000883C09F472C0883B09F07CCFE091E202AA
:1017F00081E08E0F8093E202F0E0ED51FD4F808199
:101800008093BB009091E2028091E10229C0809117
:101810002B038093BB0085EC8093BC0063CF909139
:10182000040380910303981758F5E091040381E0C5
:101830008E0F80930403F0E0EB5FFC4F8081E9CFD3
:10184000E091040381E08E0F809304038091BB003C
:10185000F0E0EB5FFC4F80839091040380910303E1
:101860009817C8F285E8D8CFE091040381E08E0F85
:10187000809304038091BB00F0E0EB5FFC4F80831A
:1018800080912A0381115DCF81E08093290384EA4E
:101890008093BC0010922C0325CFF5DE8091C0020E
:1018A000803230F4E091C002F0E0EF53FD4F10823F
:1018B0006091C00270E0E0912503F091260381EC75
:1018C00092E019951092C0020DCF85ECE1CF1092F5
:1018D000BF0237CFCF93DF93FA01680F791FEA0178
:1018E0002196DC0191E0A617B70720F09083DF91E5
:1018F000CF9108958D919E012F5F3F4F811105C0BB
:101900009083FE0191E0E901EECF88839F5F9F3FC6
:10191000D1F79083F9019E012E5F3F4FF3CF880FDF
:10192000990BFC01E05CFD4F26E080819181ACC603
:101930004F925F926F927F928F929F92AF92BF92DF
:10194000CF92EF920F931F93CF93DF93182FEB015A
:1019500029010023E1F0E82FEE0FFF0BE05CFD4FC3
:1019600080809180D401ED91FC910084F185E02D7F
:10197000C4011995181619066CF4D401ED91FC9167
:101980000284F385E02DC40119958E1125C081E0F4
:10199000F5018083F5018081813019F5E12FEE0F8B
:1019A000FF0BE05CFD4F80819181DC01ED91FC91AA
:1019B0000280F381E02DA201BE01DF91CF911F9142
:1019C0000F91EF90CF90BF90AF909F908F907F90AE
:1019D0006F905F904F9019948C11DCCFD5011C92C1
:1019E000D9CFDF91CF911F910F91EF90CF90BF9002
:1019F000AF909F908F907F906F905F904F900895E1
:101A0000880F990BFC01E05CFD4F808191819CC6A1
:101A100026E030E040E855E260E070E090E080E0F1
:101A200000C010922E0310922D038930910508F00A
:101A30003AC0FC018827E05EF24F8F4F0C94541699
:101A4000290D320D3B0D440D4D0D540D570D5A0D02
:101A5000600D81E090E090932E0380932D038BE343
:101A600093E012C682E090E090932E0380932D03C2
:101A700088ED93E0F6CF84E090E090932E0380937E
:101A80002D0385E794E0EDCF88E090E090932E035E
:101A900080932D0382E195E0E4CF80E190E0909384
:101AA0002E0380932D03089580E290E0F8CF80E428
:101AB00090E0F5CF80E890E090932E0380932D0383
:101AC00080912D0390912E039160E9CF1F920F9288
:101AD0000FB60F9211240BB60F922F933F934F9393
:101AE0005F936F937F938F939F93AF93BF93EF9386
:101AF000FF938FE89DEF909325018093240134D0CC
:101B0000FF91EF91BF91AF919F918F917F916F91D5
:101B10005F914F913F912F910F900BBE0F900FBE91
:101B20000F901F9018958FE89DEF9093250180935B
:101B30002401A3E7B0E08C918E7F8C93E0E2F1E08A
:101B400080818C7F8083E1E2F1E08081877E8083E9
:101B500080818460808380818C7F80838C91816090
:101B60008C93089581E0089580912F0391E0980F60
:101B700090932F03882349F021E030E03093310324
:101B80002093300380932F03089578940E949B0242
:101B9000F89480912F038150F5CFCF93DF9310926B
:101BA000FD051092FC0579D233DFC0912C02D09153
:101BB0002D02198218820E943704F894B4DF28811C
:101BC000398181E0232B09F080E08093FC05789433
:101BD00078948091FC05811108C00E945C04F894FF
:101BE00090E080E0DF91CF9108952881398181E0F4
:101BF000232B09F480E08093FD059091FD0581E0A1
:101C0000911180E08093FC05ADDFE3CFCDD008F4E7
:101C100081E008952FD188F09F5790F0B92F992730
:101C2000B751A0F0D1F0660F771F881F991F1AF0E7
:101C3000BA95C9F712C0B13081F04DD1B1E0089525
:101C40004AC1672F782F8827B85F39F0B93FCCF3A6
:101C5000869577956795B395D9F73EF490958095DD
:101C6000709561957F4F8F4F9F4F0895E89409C0FD
:101C700097FB3EF490958095709561957F4F8F4FBF
:101C80009F4F9923A9F0F92F96E9BB279395F695D5
:101C9000879577956795B795F111F8CFFAF4BB0F53
:101CA00011F460FF1BC06F5F7F4F8F4F9F4F16C0B7
:101CB000882311F096E911C0772321F09EE8872F41
:101CC000762F05C0662371F096E8862F70E060E0FD
:101CD0002AF09A95660F771F881FDAF7880F969576
:101CE000879597F90895E0D080F09F3740F49111DF
:101CF0000EF0F2C060E070E080E89FEB089526F4FB
:101D00001B16611D711D811D73C08DC09DD018F003
:101D100011F0A1D038F495C0DFC0E92FA3D0B0F303
:101D20005523C9F3E7FB6217730784079507A8F1EA
:101D300099F3E92FFF2788232AF03197660F771F41
:101D4000881FDAF7952F5527442332F091505040E1
:101D5000220F331F441FD2F7BB27E91BF50B621B71
:101D6000730B840BB109C1F222F4620F731F841F3D
:101D7000B11D31972AF0660F771F881FBB1FEFCF69
:101D8000915050405AF041F0882332F0660F771F8F
:101D9000881F91505040C1F7939545C0869577951F
:101DA00067959F5FD9F7F8CF990F0008550FAA0BD9
:101DB000E0E8FEEF16161706E807F907C0F012165E
:101DC0001306E407F50798F0621B730B840B950B61
:101DD00039F40A2661F0232B242B252B21F40895B6
:101DE0000A2609F4A140A6958FEF811D811D089553
:101DF000882371F4772321F09850872B762F07C022
:101E0000662311F499270DC09051862B70E060E095
:101E10002AF09A95660F771F881FDAF7880F969534
:101E2000879597F908959F3F31F0915020F4879559
:101E300077956795B795880F911D9695879597F932
:101E400008959FEF80EC089500240A941616170653
:101E500018060906089500240A941216130614069B
:101E60000506089557FD9058440F551F59F05F3FE0
:101E700071F04795880F97FB991F61F09F3F79F0AC
:101E800087950895121613061406551FF2CF46952E
:101E9000F1DF08C0161617061806991FF1CF8695B0
:101EA0007105610508940895E5DFA0F0BEE7B91754
:101EB00088F4BB279F3860F41616B11D672F782F62
:101EC0008827985FF7CF869577956795B11D93958D
:101ED0009639C8F30895E894BB2766277727CB0186
:101EE00097F908950BD067C0AFDF28F0B4DF18F082
:101EF000952309F05AC0A5CF1124EECFB3DFA0F38C
:101F0000959FD1F3950F50E0551F629FF001729F8E
:101F1000BB27F00DB11D639FAA27F00DB11DAA1FAD
:101F2000649F6627B00DA11D661F829F2227B00DFA
:101F3000A11D621F739FB00DA11D621F839FA00D85
:101F4000611D221F749F3327A00D611D231F849FD5
:101F5000600D211D822F762F6A2F11249F5750402C
:101F60008AF0E1F088234AF0EE0FFF1FBB1F661FC7
:101F7000771F881F91505040A9F79E3F510570F080
:101F800014C0AACF5F3FECF3983EDCF386957795BB
:101F90006795B795F795E7959F5FC1F7FE2B880F7B
:101FA000911D9695879597F9089597F99F6780E811
:101FB00070E060E00895092E0394000C11F488236A
:101FC00052F0BB0F40F4BF2B11F460FF04C06F5FF1
:101FD0007F4F8F4F9F4F08951F920F920FB60F9212
:101FE00011242F933F938F939F93AF93BF9380912F
:101FF000330390913403A0913503B09136033091AF
:10200000320323E0230F2D3758F50196A11DB11D92
:10201000209332038093330390933403A0933503CA
:10202000B09336038091370390913803A091390320
:10203000B0913A030196A11DB11D8093370390938F
:102040003803A0933903B0933A03BF91AF919F91A6
:102050008F913F912F910F900FBE0F901F90189569
:1020600026E8230F0296A11DB11DD2CF2FB7F894F9
:10207000609133037091340380913503909136035E
:102080002FBF08958230910538F0880F991F880F6F
:10209000991F05970197F1F70895789484B58260A8
:1020A00084BD84B5816084BD85B5826085BD85B5FC
:1020B000816085BDEEE6F0E0808181608083E1E8AB
:1020C000F0E01082808182608083808181608083E3
:1020D000E0E8F0E0808181608083E1EBF0E08081E6
:1020E00084608083E0EBF0E0808181608083E1E9BF
:1020F000F0E0808182608083808181608083E0E97C
:10210000F0E0808181608083E1EAF0E0808182609C
:102110008083808181608083E0EAF0E0808181605B
:102120008083E1E2F1E08081826080838081816050
:102130008083E0E2F1E0808181608083EAE7F0E083
:1021400080818460808380818260808380818160DF
:1021500080838081806880831092C10008951F93DE
:10216000CF93DF93182FEB0161E033D1209731F447
:1021700060E0812FDF91CF911F9167C1CF3FD105E3
:1021800011F461E0F6CFE12FF0E0EC51FF4FE49164
:10219000E150E23108F0B2C0F0E08827EE52FF4E85
:1021A0008F4F82C5E410EC10F110FB1005117E1169
:1021B0000F1117111F11291133113D114C11561117
:1021C0007E1160116A11741184B5806884BDC7BD29
:1021D000DF91CF911F91089584B5806284BDC8BD01
:1021E000F7CF80918000806880938000D093890031
:1021F000C0938800EDCF8091800080628093800042
:10220000D0938B00C0938A00E3CF809180008860D8
:1022100080938000D0938D00C0938C00D9CF8091A3
:10222000B00080688093B000C093B300D1CF80919C
:10223000B00080628093B000C093B400C9CF809199
:102240009000806880939000D0939900C09398008C
:10225000BFCF80919000806280939000D0939B00CC
:10226000C0939A00B5CF80919000886080939000D1
:10227000D0939D00C0939C00ABCF8091A00080685C
:102280008093A0008091A0008F7B8093A000D093CA
:10229000A900C093A8009CCF8091A0008062809389
:1022A000A000D093AB00C093AA0092CF8091A00071
:1022B00088608093A000D093AD00C093AC0088CF1D
:1022C00080912001806880932001D0932901C093E0
:1022D00028017ECF80912001806280932001D093DD
:1022E0002B01C0932A0174CF8091200188608093D4
:1022F0002001D0932D01C0932C016ACFC038D105A5
:102300000CF03FCF35CF8150823108F059C0E82F13
:10231000F0E08827E257FE4E8F4FC6C4AE11B211CF
:10232000A011A611AA11E011B511BB11BF11C51161
:10233000C911CD11D311D711E011DB11E111E51154
:10234000809180008F778093800008958091800035
:102350008F7DF9CF80918000877FF5CF84B58F770F
:1023600084BD089584B58F7DFBCF8091B0008F77B9
:102370008093B00008958091B0008F7DF9CF809157
:1023800090008F77809390000895809190008F7DCA
:10239000F9CF80919000877FF5CF8091A0008F7753
:1023A0008093A00008958091A0008F7DF9CF809147
:1023B000A000877FF5CF809120018F778093200147
:1023C0000895809120018F7DF9CF80912001877F32
:1023D000F5CFCF93DF9390E0FC01E65DFE4F2491B3
:1023E00080599E4FFC0184918823C9F090E0880FAA
:1023F000991FFC01E651FE4FA591B491FC01E053F9
:10240000FE4FC591D49161110DC09FB7F8948C9186
:10241000209582238C938881282328839FBFDF9176
:10242000CF910895623051F49FB7F8943C91822F78
:10243000809583238C93E8812E2BEFCF8FB7F89470
:10244000EC912E2B2C938FBFEACF1F93CF93DF936A
:10245000282F30E0F901EC51FF4F8491F901E65D3E
:10246000FE4FD491F901E059FE4FC491CC23A1F065
:10247000162F811148DFEC2FF0E0EE0FFF1FE05325
:10248000FE4FA591B4918FB7F894EC91111108C04B
:10249000D095DE23DC938FBFDF91CF911F910895FC
:1024A000DE2BF8CFCF93DF93282F30E0F901EC51EA
:1024B000FF4F8491F901E65DFE4FD491F901E05997
:1024C000FE4FC491CC2399F081111DDFEC2FF0E079
:1024D000EE0FFF1FEA54FE4FA591B491EC91ED234E
:1024E00081E090E009F480E0DF91CF91089580E0F1
:1024F00090E0FACFFC01918D228D892F90E0805CD5
:102500009F4F821B91098F7399270895FC01918D2C
:10251000828D981731F0828DE80FF11D858D90E046
:1025200008958FEF9FEF0895FC01918D828D98178C
:1025300061F0A28DAE0FBF2FB11D5D968C91928D73
:102540009F5F9F73928F90E008958FEF9FEF0895A4
:10255000FC01538D448D252F30E0842F90E0821BA9
:10256000930B541710F0CF96089501970895FC012E
:10257000A48DA80FB92FB11DA35ABF4F2C91848DE4
:1025800090E001968F739927848FA689B7892C9341
:10259000A089B1898C91837080648C93938D848D94
:1025A000981306C00288F389E02D80818F7D808397
:1025B0000895CF93DF93EC01888D8823B1F0AA8929
:1025C000BB89E889F9898C9185FD03C0808186FDEE
:1025D0000CC00FB607FCF7CF8C9185FFF2CF80813E
:1025E00085FFEDCFCE01C3DFEACFDF91CF91089514
:1025F000EF92FF920F931F93CF93DF93EC0181E053
:10260000888F9B8D8C8D98131AC0E889F9898081F9
:1026100085FF15C09FB7F894EE89FF896083E8892C
:10262000F98980818370806480839FBF81E090E01E
:10263000DF91CF911F910F91FF90EF900895F62EAB
:102640000B8D10E00F5F1F4F0F731127E02E8C8D45
:102650008E110BC00FB607FCFACFE889F98980818B
:1026600085FFF5CFCE0183DFF2CFEB8DEC0FFD2F91
:10267000F11DE35AFF4FF0829FB7F8940B8FEA8960
:10268000FB8980818062D0CFCF92DF92EF92FF9260
:102690001F93CF93DF93EC016A017B01122FE8892E
:1026A000F98982E08083C11481EED806E104F10447
:1026B00099F060E079E08DE390E0A7019601D2D235
:1026C000215031094109510956954795379527956C
:1026D000211580E1380790F0E889F989108260E8D7
:1026E00074E88EE190E0A7019601BCD22150310937
:1026F000410951095695479537952795EC85FD85F4
:102700003083EE85FF852083188EEC89FD89108348
:10271000EA89FB89808180618083EA89FB898081E5
:1027200088608083EA89FB89808180688083EA8968
:10273000FB8980818F7D8083DF91CF911F91FF90F6
:10274000EF90DF90CF900895CF93DF93EC01E88175
:10275000F9810680F781E02D1995EA89FB8980814E
:102760008F7E8083EA89FB898081877F8083EA89E5
:10277000FB8980818F778083EA89FB8980818F7DC7
:1027800080838A8D898FDF91CF9108951F920F9258
:102790000FB60F9211240BB60F922F938F939F9326
:1027A000EF93FF93E0914B03F0914C038081E09114
:1027B0005103F091520382FD1DC09081809154031A
:1027C0008F5F8F7320915503821741F0E09154037E
:1027D000F0E0E55CFC4F958F80935403FF91EF91FF
:1027E0009F918F912F910F900BBE0F900FBE0F9066
:1027F0001F9018958081F2CF1F920F920FB60F9203
:1028000011240BB60F922F933F934F935F936F93C7
:102810007F938F939F93AF93BF93EF93FF938BE33C
:1028200093E0A5DEFF91EF91BF91AF919F918F91C2
:102830007F916F915F914F913F912F910F900BBEC0
:102840000F900FBE0F901F901895EBE3F3E01382EB
:10285000128288EE93E0A0E0B0E084839583A683A3
:10286000B7838CE492E09183808385EC90E0958738
:10287000848784EC90E09787868780EC90E0918B4A
:10288000808B81EC90E0938B828B82EC90E0958B37
:10289000848B86EC90E0978B868B118E128E138E34
:1028A000148E08951F920F920FB60F9211240BB63B
:1028B0000F922F938F939F93EF93FF93E091E803F1
:1028C000F091E9038081E091EE03F091EF0382FD46
:1028D0001DC090818091F1038F5F8F732091F2036F
:1028E000821741F0E091F103F0E0E852FC4F958F40
:1028F0008093F103FF91EF919F918F912F910F9012
:102900000BBE0F900FBE0F901F9018958081F2CFD5
:102910001F920F920FB60F9211240BB60F922F93A6
:102920003F934F935F936F937F938F939F93AF9357
:10293000BF93EF93FF9388ED93E019DEFF91EF9142
:10294000BF91AF919F918F917F916F915F914F91C7
:102950003F912F910F900BBE0F900FBE0F901F90C5
:102960001895E8EDF3E01382128288EE93E0A0E080
:10297000B0E084839583A683B7838CE492E091834F
:1029800080838DEC90E0958784878CEC90E097872E
:10299000868788EC90E0918B808B89EC90E0938B1C
:1029A000828B8AEC90E0958B848B8EEC90E0978BF9
:1029B000868B118E128E138E148E08951F920F9295
:1029C0000FB60F9211240BB60F922F938F939F93F4
:1029D000EF93FF93E0918504F09186048081E0916C
:1029E0008B04F0918C0482FD1DC0908180918E0437
:1029F0008F5F8F7320918F04821741F0E0918E04D6
:102A0000F0E0EB58FB4F958F80938E04FF91EF9190
:102A10009F918F912F910F900BBE0F900FBE0F9033
:102A20001F9018958081F2CF1F920F920FB60F92D0
:102A300011240BB60F922F933F934F935F936F9395
:102A40007F938F939F93AF93BF93EF93FF9385E70C
:102A500094E08DDDFF91EF91BF91AF919F918F91A8
:102A60007F916F915F914F913F912F910F900BBE8E
:102A70000F900FBE0F901F901895E5E7F4E01382BA
:102A8000128288EE93E0A0E0B0E084839583A68371
:102A9000B7838CE492E09183808385ED90E0958705
:102AA000848784ED90E09787868780ED90E0918B16
:102AB000808B81ED90E0938B828B82ED90E0958B03
:102AC000848B86ED90E0978B868B118E128E138E01
:102AD000148E08951F920F920FB60F9211240BB609
:102AE0000F922F938F939F93EF93FF93E091220583
:102AF000F09123058081E0912805F091290582FD60
:102B00001DC0908180912B058F5F8F7320912C05C4
:102B1000821741F0E0912B05F0E0EE5EFA4F958FC1
:102B200080932B05FF91EF919F918F912F910F90A3
:102B30000BBE0F900FBE0F901F9018958081F2CFA3
:102B40001F920F920FB60F9211240BB60F922F9374
:102B50003F934F935F936F937F938F939F93AF9325
:102B6000BF93EF93FF9382E195E001DDFF91EF9139
:102B7000BF91AF919F918F917F916F915F914F9195
:102B80003F912F910F900BBE0F900FBE0F901F9093
:102B90001895E2E1F5E01382128288EE93E0A0E05E
:102BA000B0E084839583A683B7838CE492E091831D
:102BB000808385E391E09587848784E391E097871C
:102BC000868780E391E0918B808B81E391E0938B0A
:102BD000828B82E391E0958B848B86E391E0978BE7
:102BE000868B118E128E138E148E0895AF92BF9223
:102BF000CF92DF92EF92FF920F931F93CF93DF93C9
:102C00006C017B018B01040F151FEB015E01AE18F7
:102C1000BF08C017D10759F06991D601ED91FC9119
:102C20000190F081E02DC6011995892B79F7C50136
:102C3000DF91CF911F910F91FF90EF90DF90CF9098
:102C4000BF90AF900895DB018F939F9350D0BF91B9
:102C5000AF91A29F800D911DA39F900DB29F900DEB
:102C600011240895A1E21A2EAA1BBB1BFD010DC061
:102C7000AA1FBB1FEE1FFF1FA217B307E407F5072C
:102C800020F0A21BB30BE40BF50B661F771F881F08
:102C9000991F1A9469F760957095809590959B019E
:102CA000AC01BD01CF010895EE0FFF1F881F8BBF40
:102CB0000790F691E02D199405D0332312F48A1B66
:102CC0009B0B10C0A29FB001B39FC001A39F700DCA
:102CD000811D1124911DB29F700D811D1124911D24
:102CE0000895F0DFB7FF0895821B930B0895EADF84
:102CF000A59F900DB49F900DA49F800D911D112450
:102D000008950F931F93CF93DF93869F8001879F32
:102D1000100D969F100D1124C8010DD0EC010097E5
:102D200021F0A80170E060E02BD1CE01DF91CF91BE
:102D30001F910F9108950F931F93CF93DF938230CC
:102D4000910510F482E090E0E0910006F091010618
:102D500030E020E0B0E0A0E0309799F42115310593
:102D600009F44AC0281B390B24303105D8F58A8173
:102D70009B816115710589F1FB0193838283FE01BB
:102D800011C0408151810281138148175907E0F039
:102D90004817590799F4109761F012960C931297FF
:102DA00013961C933296CF01DF91CF911F910F9113
:102DB00008950093000610930106F4CF2115310504
:102DC00051F04217530738F0A901DB019A01BD0108
:102DD000DF01F801C1CFEF01F9CF90930106809395
:102DE0000006CDCFFE01E20FF31F81939193225095
:102DF000310939832883D7CF2091FE053091FF0513
:102E0000232B41F420910202309103023093FF05FD
:102E10002093FE0520910002309101022115310519
:102E200041F42DB73EB74091040250910502241B96
:102E3000350BE091FE05F091FF05E217F307A0F4D2
:102E40002E1B3F0B2817390778F0AC014E5F5F4F00
:102E50002417350748F04E0F5F1F5093FF0540932E
:102E6000FE05819391939FCFF0E0E0E09CCFCF935C
:102E7000DF930097E9F0FC01329713821282A09150
:102E80000006B0910106ED0130E020E01097A1F4BA
:102E900020813181820F931F2091FE053091FF0523
:102EA0002817390709F061C0F093FF05E093FE058C
:102EB000DF91CF910895EA01CE17DF07E8F54A8147
:102EC0005B819E0141155105B1F7E901FB83EA835E
:102ED00049915991C40FD51FEC17FD0761F480810A
:102EE00091810296840F951FE901998388838281DD
:102EF00093819B838A83F0E0E0E012968D919C9110
:102F000013970097B9F52D913C911197CD01029639
:102F1000820F931F2091FE053091FF052817390776
:102F200039F6309751F51092010610920006B093D1
:102F3000FF05A093FE05BCCFD383C283408151819E
:102F4000840F951FC817D90761F44E5F5F4F8881C2
:102F50009981480F591F518340838A819B819383B4
:102F600082832115310509F0B0CFF0930106E0937B
:102F700000069ECFFD01DC01C0CF13821282D7CFA5
:102F8000DC0101C06D9341505040E0F70895F89482
:022F9000FFCF71
:102F920000000206800000008042000000000000E5
:102FA200804200000000000080BF0000008000009E
:102FB20080BF127D004000400000E8035A0200007A
:102FC200000064099209370963093A094109540961
:102FD2003B03D8037504120500000000F812F61531
:0A2FE200A812D9127A129412861276
:00000001FF
