:100000001EC100004DC100004BC1000049C10000ED
:1000100047C1000045C1000043C1000041C10000CC
:100020003FC100003DC100003BC1000039C10000DC
:1000300037C1000035C1000033C1000031C10000EC
:100040002FC100002DC100002BC1000029C10000FC
:1000500027C1000025C1000023C100000C94DD1B56
:100060001FC100000C94B71F0C94ED1F19C10000B4
:1000700017C1000015C1000013C1000011C100002C
:100080000FC100000DC100000BC1000009C100003C
:100090000C9443200C94792003C100000C94711639
:1000A000FFC00000FDC00000FBC00000F9C0000060
:1000B000F7C00000F5C00000F3C00000F1C0000070
:1000C000EFC00000EDC000000C94F0170C94CF209E
:1000D0000C940521E5C000000C945B210C94912147
:1000E000DFC00000084AD73B3BCE016E84BCBFFD99
:1000F000C12F3D6C74319ABD56833DDA3D00C77FF8
:1001000011BED9E4BB4C3E916BAAAABE0000008090
:100110003F0000000A0B02090C0D0E080703040142
:1001200000000000000000000000000000000000CF
:10013000000000000000000000000000000012119C
:10014000100000000000000000000000000000009F
:10015000000000000000000001021020200808102C
:100160002040102040800201020108040201010227
:100170000408102040808040201008040201800400
:10018000020180402010080402010804020101025B
:10019000040810204080010204081020408005055A
:1001A0000505070508080808020202020A0A0808ED
:1001B000040404040101010101010101030303031B
:1001C00003030303040707070C0C0C0C0C0C0C0CAA
:1001D0000202020206060606060606060B0B0B0BBB
:1001E0000B0B0B0B000020002300260029002C0025
:1001F0002F00320000010000030106010901000088
:100200002200250028002B002E00310034000201BE
:100210000000050108010B01000021002400270057
:100220002A002D0030003300010100000401070105
:100230000A0166126C151620A2202E21BA21112463
:100240001FBECFEFD1E2DEBFCDBF00E00CBF14E098
:10025000A0E0B2E0E4E7F7E400E00BBF02C00790E3
:100260000D92A832B107D9F728E0A8E2B4E001C0A6
:100270001D92A83DB207E1F711E0CFE1D1E000E027
:1002800006C021970109802FFE010E944522C93135
:10029000D10780E00807A9F70E9457180C94B823EB
:1002A000AFCE4F925F926F927F928F929F92AF925A
:1002B000BF92CF92DF92EF92FF920F931F93CF9353
:1002C000DF93CDB7DEB76A970FB6F894DEBF0FBEE7
:1002D000CDBF6D837E838F83988729013A01FA8E83
:1002E000E98E4B015C01B7FE08C0B094A0949094D5
:1002F0008094811C911CA11CB11C7301620177FECA
:1003000007C0CC24DD247601C418D508E608F70818
:1003100095014427552729873A874B875C87AA246C
:10032000BB24C701AA27BB278D879E87AF87B88BC1
:10033000EE24FF24C701B6010E941422698B7A8B38
:100340008B8B9C8BA50194016D857E858F8598890B
:100350000E9414226D8B7E8B8F8B988FC701B60104
:100360000E941422AB01BC01CD88DE88EF88F88C96
:10037000D60199278827840F951FA61FB71FF1E084
:10038000E0E030E020E084179507A607B70708F003
:10039000F0E0F983EA833B832C8329893A894B89EE
:1003A0005C897901DD24CC24C80ED91EEA1EFB1E0F
:1003B000C816D906EA06FB0658F489819A81AB81F2
:1003C000BC810196A11DB11D89839A83AB83BC8337
:1003D0002D893E894F89588DCA01AA27BB272989B3
:1003E0003A894B895C894A01AA24BB24880E991E4C
:1003F000AA1EBB1E29853A854B855C856D857E8549
:100400008F8598890E941422860E971EA81EB91EF9
:1004100089819A81AB81BC81880E991EAA1EBB1E60
:100420002D813E814F8158852115310541055105AA
:1004300031F1411451046104710409F191E0121683
:100440001306140615060CF090E081E01414150450
:10045000160417040CF080E0981789F0F094E094EB
:10046000D094C094C11CD11CE11CF11CC114D10456
:10047000E104F10439F180949094A094B094D801EF
:100480008D929D92AD92BC921397E98DFA8DC082A8
:10049000D182E282F3826A960FB6F894DEBF0FBE75
:1004A000CDBFDF91CF911F910F91FF90EF90DF9023
:1004B000CF90BF90AF909F908F907F906F905F9004
:1004C0004F900895B094A09490948094811C911CB6
:1004D000A11CB11CD4CF8F929F92AF92BF92EF928A
:1004E000FF920F931F93CF93DF9300D000D01F9202
:1004F0001F92CDB7DEB74701FE0131967F018E0115
:100500000B5F1F4FCEDE20E230E0281939096D81E4
:100510007E818F81988504C0660F771F881F991F81
:100520002A95D2F709811A812B813C8104C0369526
:100530002795179507958A94D2F7602B712B822BFC
:10054000932B28960FB6F894DEBF0FBECDBFDF9178
:10055000CF911F910F91FF90EF90BF90AF909F9020
:100560008F9008954F925F926F927F928F929F9299
:10057000AF92BF92CF92DF92EF92FF920F931F93B1
:10058000CF93DF935A0128013901E7019C8020E0D5
:1005900030E0A9010E946C1B18160CF05AC0911093
:1005A0000BC0F60184819581A681B78188839983E8
:1005B000AA83BB8381E08C83A30192016881798146
:1005C0008A819B810E945719881F8827881FF501FF
:1005D0008083F60124853585468557856081718144
:1005E000828193810E94771B288139814A815B81B6
:1005F0000E9491184B015C0188829982AA82BB8279
:10060000A30192010E946C1B18162CF44882598297
:100610006A827B820DC0F6014084518462847384B7
:10062000A3019201C501B4010E94571987FDEECFC5
:10063000DF91CF911F910F91FF90EF90DF90CF90BE
:10064000BF90AF909F908F907F906F905F904F90F2
:100650000895992069F31C82EBCF2F923F924F921D
:100660005F926F927F928F929F92AF92BF92CF9242
:10067000DF92EF92FF920F931F93CF93DF9300D0FF
:100680001F921F92CDB7DEB789831B0129013A0162
:10069000EA82FB820C831D838401882341F1D4010B
:1006A0008C91813021F1F50120813181428153818A
:1006B000D6016D917D918D919C910E9491184B0175
:1006C0005C01F60180829182A282B3822A813B8101
:1006D0004C815D810E946C1B181644F58A819B81B8
:1006E000AC81BD81F10180839183A283B38381E0DA
:1006F000F981F11101C080E0D8018C930F900F9027
:100700000F900F900F90DF91CF911F910F91FF905D
:10071000EF90DF90CF90BF90AF909F908F907F90A1
:100720006F905F904F903F902F900895A30192019A
:10073000C501B4010E94571987FF07C0D1014D922E
:100740005D926D927C921397D2CFF101808291825B
:10075000A282B382CCCF8F929F92AF92BF92CF9260
:10076000DF92EF92FF92CF93DF936B017C014901FF
:100770005A010E94750F882399F06091BA08709110
:10078000BB088091BC089091BD08DF91CF91FF908C
:10079000EF90DF90CF90BF90AF909F908F90089593
:1007A000C501B4010E94750F8111E7CFC701B601E1
:1007B0000E944A0F8823E1F1C501B4010E944A0F4B
:1007C0008823B1F120E030E0A901C701B6010E9401
:1007D0006C1BCFEFDFEF181614F4C1E0D0E020E07F
:1007E00030E0A901C501B4010E946C1B6FEF7FEFDF
:1007F000181614F461E070E0072E000C880B990BBA
:100800000E94F6196B017C01BE01DD0F880B990B6C
:100810000E94F619A7019601DF91CF91FF90EF900A
:10082000DF90CF90BF90AF909F908F900C94041961
:1008300020E030E0A901C501B4010E9457198111DF
:1008400016C020E030E0A901C701B6010E946C1B70
:10085000181694F020E030E0A901C701B6010E940B
:10086000571987FD0EC060E070E0CB018ECFA50167
:100870009401C701B601D0CF6BED7FE089EC9FE317
:1008800084CF6BED7FE089EC9FEB7FCF4F925F923F
:100890006F927F928F929F92AF92BF92CF92DF9290
:1008A000EF92FF920F931F93CF93DF93CDB7DEB7F5
:1008B00060970FB6F894DEBF0FBECDBF6FE678E04D
:1008C0008EE698E00E94980FE0906602F090670232
:1008D000009168021091690220915E0230915F02DE
:1008E000409160025091610289EB882E88E0982E39
:1008F00090ECA92E93E0B92E6AEAC62E68E0D62EB7
:100900006EE178E080916E08A8DE00917A02109185
:100910007B0220917C0230917D0260911E087091D3
:100920001F088091200890912108E5EDCE2EE3E08C
:10093000DE2EF3EBEF2EF8E0FF2E41E758E012DE5B
:1009400020E030E0A90160911E0870911F0880919D
:100950002008909121080E945719882311F40C94C3
:10096000060D8091710881110C94060D81E0809331
:10097000A3082091BD043091BE043A83298360917D
:1009800016027091170280911802909119020E942C
:10099000C3196130710509F442C06230710511F468
:1009A0000C94D80CA981BA818D909D90AD90BC908B
:1009B00040908E0250908F02609090027090910251
:1009C000A3019201C501B4010E94571987FD02C01D
:1009D0000C94FC0CC090DA02D090DB02E090DC02B8
:1009E000F090DD02A3019201C501B4010E949018AC
:1009F000A70196010E94771B20916E0230916F0231
:100A000040917002509171020E94911860932208E7
:100A100070932308809324089093250822C0209186
:100A2000C2023091C3024091C4025091C502A98113
:100A3000BA816D917D918D919C910E94571987FF8C
:100A4000AEC78091C6029091C702A091C802B09132
:100A5000C9028093220890932308A0932408B0939E
:100A600025088091220890912308A0912408B09134
:100A700025088093320890933308A0933408B093EC
:100A8000350820917E0830917F0840918008509170
:100A9000810860913A0370913B0380913C039091EF
:100AA0003D030E94771B20917A0830917B0840918A
:100AB0007C0850917D080E94911820914A03309142
:100AC0004B0340914C0350914D030E94771B609360
:100AD00036087093370880933808909339086AE590
:100AE00078E086E598E00E942A1080904E0390906E
:100AF0004F03A0905003B090510320915A083091B9
:100B00005B0840915C0850915D086091F202709121
:100B1000F3028091F4029091F5021FE1E12EF12C95
:100B200000E010E0D8DC4090360850903708609024
:100B30003808709039080E94F619A50194010E94A6
:100B4000771B2091520330915303409154035091ED
:100B500055030E94771BA30192010E949118698797
:100B60007A878B879C87609156087091570880918F
:100B70005808909159080E94F61920915603309117
:100B8000570340915803509159030E94771B2091BD
:100B90005A0330915B0340915C0350915D030E94C6
:100BA000771BA30192010E9491186D877E878F8722
:100BB000988B9B01AC0169857A858B859C850E9409
:100BC000911820E030E040E05FE30E94771B4B018A
:100BD0005C0180923A0890923B08A0923C08B09247
:100BE0003D08C0908208D0908308E0908408F0907F
:100BF00085088091860890918708A0918808B09117
:100C0000890889839A83AB83BC8380918A089091F9
:100C10008B08A0918C08B0918D088D839E83AF8343
:100C2000B8872091720330917303409174035091FF
:100C30007503C701B6010E94771B9B01AC01C5017A
:100C4000B4010E9490184B015C0120917603309111
:100C50007703409178035091790369817A818B8180
:100C60009C810E94771B9B01AC01C501B4010E94CD
:100C700090184B015C0120917A0330917B034091E5
:100C80007C0350917D036D817E818F8198850E94C8
:100C9000771B9B01AC01C501B4010E949018209103
:100CA0006E0330916F0340917003509171030E9465
:100CB0005B1960939A0870939B0880939C089093AB
:100CC0009D0820915E0330915F0340916003509135
:100CD00061030E94771B4B015C01209162033091FC
:100CE00063034091640350916503C701B6010E94FC
:100CF000771B9B01AC01C501B4010E9491186B01E7
:100D00007C01209166033091670340916803509104
:100D1000690369817A818B819C810E94771B9B0189
:100D2000AC01C701B6010E9491186B017C012091B2
:100D30006A0330916B0340916C0350916D036D8198
:100D40007E818F8198850E94771B9B01AC01C70132
:100D5000B6010E94911860933E0870933F088093FB
:100D600040089093410880908E0890908F08A09042
:100D70009008B0909108C0909208D0909308E090AD
:100D80009408F09095088091960890919708A0910A
:100D90009808B091990889839A83AB83BC8320918A
:100DA0009603309197034091980350919903C501A0
:100DB000B4010E94771B9B01AC01C301B2010E94E8
:100DC00090182B013C0120919A0330919B03409194
:100DD0009C0350919D03C701B6010E94771B9B01A4
:100DE000AC01C301B2010E9490182B013C0120917B
:100DF0009E0330919F034091A0035091A10369810C
:100E00007A818B819C810E94771B9B01AC01C3017D
:100E1000B2010E9490182091920330919303409167
:100E20009403509195030E945B1960939E08709300
:100E30009F088093A0089093A1082091820330918D
:100E4000830340918403509185030E94771B2B01FB
:100E50003C01209186033091870340918803509193
:100E60008903C501B4010E94771B9B01AC01C3013A
:100E7000B2010E9491184B015C0120918A033091CC
:100E80008B0340918C0350918D03C701B6010E94E2
:100E9000771B9B01AC01C501B4010E9491186B0145
:100EA0007C0120918E0330918F03409190035091EB
:100EB000910369817A818B819C810E94771B9B01C0
:100EC000AC01C701B6010E9491186093420870936B
:100ED000430880934408909345082D853E854F85AF
:100EE000588969857A858B859C850E9490182BE9A5
:100EF00039E949E55EEB0E94771B609346087093E1
:100F000047088093480890934908E0906A02F0905F
:100F10006B0200916C0210916D022091620230917F
:100F200063024091640250916502F8EB8F2EF8E065
:100F30009F2EACEBAA2EA3E0BA2EB6EACB2EB8E0D9
:100F4000DB2E6AE178E080916F0887DB20E030E0FB
:100F5000A90160911E0870911F088091200890914E
:100F600021080E945719811110C020E030E0A9012A
:100F700060911A0870911B0880911C0890911D08BF
:100F80000E945719882309F46BC581E08093A50856
:100F9000209132083091330840913408509135083F
:100FA0006091FE027091FF02809100039091010315
:100FB0000E94771B6B017C018090FA029090FB02EB
:100FC000A090FC02B090FD02209102033091030337
:100FD00040910403509105030E94771B2B013C01B3
:100FE00020913A0830913B0840913C0850913D08CF
:100FF000C501B4010E94771B9B01AC01C301B20182
:101000000E94901820911203309113034091140311
:10101000509115030E94771B69837A838B839C838D
:101020002091060330910703409108035091090372
:10103000C701B6010E94771B2B013C0120913608A5
:10104000309137084091380850913908C501B401F2
:101050000E94771B9B01AC01C301B2010E94901852
:1010600020911603309117034091180350911903F2
:101070000E94771B9B01AC0169817A818B819C81E5
:101080000E94911869837A838B839C8320910A0341
:1010900030910B0340910C0350910D03C701B60131
:1010A0000E94771B2B013C0120913E0830913F08A4
:1010B0004091400850914108C501B4010E94771B3E
:1010C0009B01AC01C301B2010E94901820911A0348
:1010D00030911B0340911C0350911D030E94771B0C
:1010E0009B01AC0169817A818B819C810E9491185E
:1010F00069837A838B839C8320910E0330910F0345
:101100004091100350911103C701B6010E94771B53
:101110002B013C0120914208309143084091440842
:1011200050914508C501B4010E94771B9B01AC0199
:10113000C301B2010E94901820911E0330911F0339
:1011400040912003509121030E94771B9B01AC0129
:1011500069817A818B819C810E9491184B015C018D
:1011600020912203309123034091240350912503C1
:10117000C701B6010E94771B9B01AC01C501B401F8
:101180000E94911820912603309127034091280353
:10119000509129030E94771B609352087093530863
:1011A0008093540890935508E091BD04F091BE04DB
:1011B000C080D180E280F3804090920250909302F0
:1011C0006090940270909502A7019601C301B2014C
:1011D0000E946C1B18160CF031C48090DE029090B7
:1011E000DF02A090E002B090E1028091960290911F
:1011F0009702A0919802B091990289839A83AB8358
:10120000BC83A7019601BC01CD010E946C1B18167E
:101210000CF01DC48091E2029091E302A091E402DF
:10122000B091E5028D839E83AF83B887A3019201BD
:10123000C701B6010E949018A50194010E94771B76
:1012400020917202309173024091740250917502A4
:101250000E9491184B015C0129813A814B815C818C
:10126000C701B6010E9490182D813E814F8158859B
:101270000E94771B2091760230917702409178028C
:10128000509179020E949118A50194010E94771B48
:101290004B015C01C090E602D090E702E090E802CA
:1012A000F090E9029B01AC01B601C7010E945719F9
:1012B00087FD12C0C090EA02D090EB02E090EC02F1
:1012C000F090ED029401A501B601C7010E946C1BCC
:1012D000181614F0640175012091A6023091A7023E
:1012E0004091A8025091A902B601C7010E94771B44
:1012F0006B017C01209146083091470840914808D5
:101300005091490860912A0370912B0380912C031E
:1013100090912D030E94771B9B01AC01C701B60180
:101320000E9490186B017C012091AA023091AB02BF
:101330004091AC025091AD020E94771B209172083F
:101340003091730840917408509175080E9491186B
:1013500020915A0230915B0240915C0250915D02F3
:101360000E94771B60932A0870932B0880932C08A7
:1013700090932D08A70196016091AE027091AF0283
:101380008091B0029091B1020E94771B60932E0869
:1013900070932F08809330089093310800917E025B
:1013A00010917F02209180023091810260911A0891
:1013B00070911B0880911C0890911D0844ECC42E6C
:1013C00043E0D42E5EEAE52E58E0F52E40E758E0E3
:1013D000C9D820E030E0A90160911A0870911B087B
:1013E00080911C0890911D080E945719882309F4C8
:1013F00076C380917008811172C381E08093A40844
:10140000E091BD04F091BE042091B6023091B70284
:101410004091B8025091B9026081718182819381BB
:101420000E94571987FF44C38091BA029091BB0272
:10143000A091BC02B091BD0280932608909327082A
:10144000A0932808B09329082091260830912708F6
:1014500040912808509129086091520870915308D2
:1014600080915408909155080E9490186B017C015E
:1014700020912A0830912B0840912C0850912D087A
:101480000E9491180E94311A4B015C0148D58111CC
:101490003EC3C501B401D3D4811139C320E030E08B
:1014A00040E857E4C501B4010E944B1A4B015C01AE
:1014B00020E030E0A9010E94571987FF2BC3C50126
:1014C000B40190580E94C819719561957109709383
:1014D0005F0860935E0820912A0830912B084091A4
:1014E0002C0850912D08C701B6010E949018209138
:1014F000EE023091EF024091F0025091F1020E9411
:10150000771B0E94311A6B017C0109D5811107C339
:10151000C701B60194D4811102C320E030E040E855
:1015200057E4C701B6010E944B1A6B017C0120E011
:1015300030E0A9010E94571987FFF4C2C701B60124
:1015400090580E94C819719561957109709361084E
:101550006093600860E678E08EE598E06BD6E091F5
:101560007608F091770880913A0890913B08A09115
:101570003C08B0913D0880839183A283B38380911E
:10158000360890913708A0913808B09139088483C3
:101590009583A683B78380913E0890913F08A091E0
:1015A0004008B091410880879187A287B3878091D6
:1015B000420890914308A0914408B091450884875F
:1015C0009587A687B7878091460890914708A09194
:1015D0004808B0914908808B918BA28BB38B809186
:1015E000520890915308A0915408B0915508848BEB
:1015F000958BA68BB78B8091320890913308A09180
:101600003408B0913508808F918FA28FB38F4091AD
:101610007808509179086CE170E08091760890919B
:10162000770849D66091780870917908DB015D965A
:101630001C9282EAA82E88E0B82E92E4C92E21E4FA
:10164000E22E01E02EE130E040E050E082E062D6A0
:1016500068E678E082E698E0E0D62091BA0330911F
:10166000BB03A0916608B09167080E944D220E94BA
:10167000F61920E030E040E053E30E94771B209110
:10168000AA033091AB034091AC035091AD030E948B
:10169000771B2091AE033091AF034091B00350917E
:1016A000B1030E94771B6B017C012091B80330913C
:1016B000B903A0916408B09165080E944D220E9470
:1016C000F61920E030E040E053E30E94771B2091C0
:1016D000A6033091A7034091A8035091A9030E944B
:1016E000771BA701960137D880907A0890907B08E5
:1016F000A0907C08B0907D08A50194010E949018EC
:101700006B017C01C0924A08D0924B08E0924C08D1
:10171000F0924D082091B6033091B703A09168086C
:10172000B09169080E944D220E94F61920E030E035
:1017300040E854E30E94771B2091B2033091B30339
:101740004091B4035091B5030E94771B60934E08FB
:1017500070934F08809350089093510820912E0366
:1017600030912F0340913003509131030E94771B39
:10177000A50194010E94911860937A0870937B08E8
:1017800080937C0890937D0820917E0830917F089B
:101790004091800850918108609142037091430309
:1017A00080914403909145030E94771B9B01AC01FB
:1017B000C701B6010E94901820913E0330913F036B
:1017C00040914003509141030E945B1960937E0851
:1017D00070937F0880938008909381088091860899
:1017E00090918708A0918808B091890880938A0811
:1017F00090938B08A0938C08B0938D0880919208E9
:1018000090919308A0919408B091950880939608C0
:1018100090939708A0939808B093990880918208B4
:1018200090918308A0918408B091850880938608E0
:1018300090938708A0938808B093890880918E08B8
:1018400090918F08A0919008B09191088093920890
:1018500090939308A0939408B093950880919A0868
:1018600090919B08A0919C08B0919D08809382085C
:1018700090938308A0938408B093850880919E0874
:1018800090919F08A091A008B091A10880938E0824
:1018900090938F08A0939008B09391088091A50829
:1018A000882321F120912E0830912F084091300893
:1018B0005091310860919E0270919F028091A00228
:1018C0009091A1020E94771B2091720830917308B9
:1018D00040917408509175080E94911860937208A5
:1018E0007093730880937408909375086091AF04A7
:1018F0007091B0048091B1049091B2046F5F7F4FFA
:101900008F4F9F4F6093AF047093B0048093B104E6
:101910009093B204E091BD04F091BE04FA83E98390
:101920000E94F4199B01AC016091B3047091B4045E
:101930008091B5049091B6040E94771BA981BA8169
:101940006D937D938D939C9313978091B7049091A1
:10195000B804A091B904B091BA040196A11DB11DBB
:101960008093B7049093B804A093B904B093BA04D9
:1019700060960FB6F894DEBF0FBECDBFDF91CF915A
:101980001F910F91FF90EF90DF90CF90BF90AF909D
:101990009F908F907F906F905F904F90089580916F
:1019A000CA029091CB02A091CC02B091CD0251C855
:1019B0002091CE023091CF024091D0025091D102BD
:1019C000E981FA8160817181828193810E94571936
:1019D00087FF09C08091D2029091D302A091D402D6
:1019E000B091D50236C88091D6029091D702A091CD
:1019F000D802B091D9022DC8C0908202D090830243
:101A0000E0908402F09085020C94F2048091A30887
:101A1000882309F426C88091BE029091BF02A0914C
:101A2000C002B091C1028093220890932308A09332
:101A30002408B09325081092A30813C8809086024A
:101A400090908702A0908802B0908902CECB8091BE
:101A50008A0290918B02A0918C02B0918D02E2CB10
:101A60008091A508882309F499CC8091F602909181
:101A7000F702A091F802B091F90280935208909376
:101A80005308A0935408B093550880919A029091FE
:101A90009B02A0919C02B0919D0280932A08909392
:101AA0002B08A0932C08B0932D081092A50876CC93
:101AB000209156023091570240915802509159029C
:101AC00060E070E080EA90E40E945B196093260871
:101AD000709327088093280890932908B5CC8091AB
:101AE000A408882309F4B0CC8091B2029091B3028B
:101AF000A091B402B091B502809326089093270874
:101B0000A0932808B09329081092A4089DCC812C9A
:101B1000912C5401C501B4010E94C819D8CCC12C24
:101B2000D12C7601C701B6010E94C8190FCD0F93C1
:101B30001F93CF93DF9384E090E04AD1E8E2F4E092
:101B40008BEB94E095838483CDEBD4E0D7AFC6AF25
:101B500003EB14E0138B028BF0939104E093900459
:101B6000F383E28321E030E0DC012D933C9310927B
:101B7000A7041092AE0488EE93E0918780878FEBE4
:101B800094E0998388834AE057ED63E27CE3F801AF
:101B90004083518362837383C3D15AD22BD361E0D4
:101BA00070E08CE190E00E947222C2E7D8E09D8351
:101BB0008C8361E070E08EE190E00E9472229F834E
:101BC0008E8318AA40E056E960E070E082E098D386
:101BD00012D4E8EBF8E081E08083818380913203C6
:101BE00090913303A0913403B0913503888799878E
:101BF000AA87BB878091460390914703A091480331
:101C0000B09149038C879D87AE87BF8740917E0343
:101C100050917F036091800370918103488B598BB1
:101C20006A8B7B8B8091A2039091A303A091A40364
:101C3000B091A5038C8F9D8FAE8FBF8F4C8B5D8B2A
:101C40006E8B7F8B88A399A3AAA3BBA3488F598FC0
:101C50006A8F7B8F8CA39DA3AEA3BFA380915E02EE
:101C600090915F02A0916002B091610288AF99AF3C
:101C7000AAAFBBAFEAE1F8E084839583A683B7837C
:101C80008091D9039091DA03A091DB03B091DC033A
:101C90008093B3089093B408A093B508B093B608A6
:101CA0008091E503809371088091BE029091BF02FC
:101CB000A091C002B091C10280879187A287B387AB
:101CC0008091620290916302A0916402B0916502DA
:101CD0008CAB9DABAEABBFAB80839183A283B38350
:101CE0008091A2029091A302A091A402B091A502BA
:101CF00088839983AA83BB838091F6029091F7022F
:101D0000A091F802B091F90280AF91AFA2AFB3AF4A
:101D100080919A0290919B02A0919C02B0919D02A9
:101D2000808B918BA28BB38B8091C8039091C90358
:101D3000A091CA03B091CB038CAF9DAFAEAFBFAF44
:101D40008091D403809370088091B2029091B30285
:101D5000A091B402B091B50284879587A687B78712
:101D6000DF91CF911F910F910895CF93DF93FFD013
:101D7000F6D199D2C2E7D8E08C819D810E942823B8
:101D80008E819F810E94282318AA82E02BD3DF91A5
:101D9000CF919BC360E070E080E89FE7089560E02A
:101DA00070E080E89FE7089560E070E080E89FEFD2
:101DB000089560E070E080E89FEF089560E070E0D3
:101DC00080EC9FEF089560E070E080EC9FEF089555
:101DD000F5DF6093C6087093C7088093C808909396
:101DE000C908F1DF6093BA087093BB088093BC0800
:101DF0009093BD08CFDF6093C2087093C3088093AF
:101E0000C4089093C508CBDF6093BE087093BF08E9
:101E10008093C0089093C108C7DF6093CA0870938D
:101E2000CB088093CC089093CD08C3DF6093CE0895
:101E30007093CF088093D0089093D1080895CF92E3
:101E4000DF92EF92FF92CF936B017C01AC019B017B
:101E50006091C2087091C3088091C4089091C50830
:101E60000E945719C1E0882371F0A7019601609183
:101E7000CA087091CB088091CC089091CD080E943F
:101E800057198111C0E08C2FCF91FF90EF90DF9018
:101E9000CF900895CF92DF92EF92FF92CF936B0194
:101EA0007C01AC019B016091BE087091BF088091DC
:101EB000C0089091C1080E945719C1E0882371F0B1
:101EC000A70196016091CE087091CF088091D0084B
:101ED0009091D1080E9457198111C0E08C2FCF91A9
:101EE000FF90EF90DF90CF9008950F931F938B0199
:101EF0009C010027112720783F7701151105204804
:101F00003F4749F4AB01BC016F77772781E0452B50
:101F1000462B472B09F480E01F910F910895E5CFE0
:101F200060E08EE20E94DA1D60E08FE20C94DA1D20
:101F30000F931F93CF93DF938C01EB018EE20E94EE
:101F4000431E019779F481E0F80180838FE20E94BB
:101F5000431E019751F481E08883DF91CF911F9157
:101F60000F910895F8011082F1CF1882F6CF0895ED
:101F70008EBD00000DB407FEFDCF8EB5089561E063
:101F800081E30E94DA1D61E080E30E94DA1D61E0D6
:101F900081E30E94161E61E080E30E94161EE0D0DD
:101FA00060E081E30E94161E88E8E2DF83E0E0DF64
:101FB00061E081E30E94161E60E080E30E94161E2D
:101FC00088E8D6DF83E0D4DF61E080E30C94161E5E
:101FD00060E081E30E94161E88E9CADF80E0C8DF66
:101FE00080E0C6DF80E0C4DF80E0C2DF61E081E343
:101FF0000E94161E8AE090E00E94331C60E081E39C
:102000000E94161E80EEB4DF61E081E30E94161E7E
:1020100060E080E30E94161E88E9AADF80E0A8DF66
:1020200080E0A6DF80E0A4DF80E0A2DF61E080E363
:102030000E94161E8AE090E00E94331C60E080E35C
:102040000E94161E80EE94DF61E080E30C94161E61
:1020500096DFBECF8F929F92AF92BF92CF92DF92C8
:10206000EF92FF920F931F93CF93DF938C01EB01BD
:1020700060E081E30E94161E80E67ADF80E078DF70
:10208000F82E80E075DFC82E80E072DFA82E80E099
:102090006FDFB82E61E081E30E94161E8F2D90E065
:1020A000982F8827C80ED92ED11C0D2C000CEE08B5
:1020B000FF08FE2CED2CDC2CCC24CA0CD11CE11C1E
:1020C000F11CFE2CED2CDC2CCC24CB0CD11CE11C07
:1020D000F11C60E080E30E94161E80E649DF80E08C
:1020E00047DF882E80E044DF982E80E041DFA82E75
:1020F00080E03EDFB82E61E080E30E94161E882D4E
:1021000090E0982F8827890D911D092E000CAA0BAD
:10211000BB0BBA2FA92F982F88278A0D911DA11DBF
:10212000B11DBA2FA92F982F8827F801C082D1821C
:10213000E282F3828B0D911DA11DB11D88839983CD
:10214000AA83BB83DF91CF911F910F91FF90EF90F6
:10215000DF90CF90BF90AF909F908F90089536C042
:10216000CF93CFB7F8948091C804811127C0E3EDD5
:10217000F1E08491EDE8F1E09491E82FF0E0EE0FCA
:10218000FF1FE85EFD4FA591B491EC91E92321F486
:1021900061E085E30E94161E61E085E30E94DA1D7E
:1021A0008CB580618CBD8CB580648CBD61E084E3AE
:1021B0000E94DA1D61E083E30E94DA1D8091C80469
:1021C0008F5F8093C804CFBFCF9108959FB7F894D5
:1021D0008091C804882319F081508093C8048091AD
:1021E000C804811105C08CB58F7B8CBD1092C704CB
:1021F0009FBF089561E08CE00E94DA1D61E083E0FA
:102200000E94DA1D61E089E00E94DA1D61E08DE044
:102210000E94DA1D61E08BE00E94DA1D61E088E037
:102220000E94DA1D60E089E00E94161E60E088E0EE
:102230000C94161E0F931F93CF93DF938C01EB0129
:10224000FC018081918197FD1DC061E08CE00E94BE
:10225000161EF80160817181772783E00E94A01C1F
:102260008881998197FD17C061E08DE00E94161E5C
:102270006881798177278BE0DF91CF911F910F9152
:102280000C94A01C60E08CE00E94161EF801608196
:10229000619570E0E2CF60E08DE00E94161E6881DB
:1022A000619570E0E8CF61E089E00E94161E61E070
:1022B00088E00C94161ECF93DF93FA01680F791F04
:1022C000EA012196DC0191E0A617B70720F0908380
:1022D000DF91CF9108958D919E012F5F3F4F811126
:1022E00005C09083FE0191E0E901EECF88839F5FF6
:1022F0009F3FD1F79083F9019E012E5F3F4FF3CFAF
:10230000880F990BFC01E450FC4F26E080819181FD
:102310000C94351F4F925F926F927F928F929F9293
:10232000AF92BF92CF92EF920F931F93CF93DF9311
:10233000182FEB0129010023E1F0E82FEE0FFF0B2E
:10234000E450FC4F80809180D401ED91FC91008499
:10235000F185E02DC4011995181619066CF4D40105
:10236000ED91FC910284F385E02DC40119958E1145
:1023700025C081E0F5018083F5018081813019F568
:10238000E12FEE0FFF0BE450FC4F80819181DC01C7
:10239000ED91FC910280F381E02DA201BE01DF915D
:1023A000CF911F910F91EF90CF90BF90AF909F90E2
:1023B0008F907F906F905F904F9019948C11DCCF2D
:1023C000D5011C92D9CFDF91CF911F910F91EF9042
:1023D000CF90BF90AF909F908F907F906F905F90C5
:1023E0004F900895880F990BFC01E450FC4F8081B9
:1023F00091810C94951F88ED94E0E6D289EC94E0ED
:10240000FBD062E089EC94E068D060E089EC94E075
:102410006ED063E089EC94E074C08F929F92AF928B
:10242000BF92CF92DF92EF92FF920F931F93CF93C1
:10243000DF93CDB7DEB72C970FB6F894DEBF0FBE93
:10244000CDBF4C015B01CE0101966C01FE013396BC
:102450007F018E010B5F1F4F9E01295F3F4FAE0131
:10246000475F5F4FBE01655F7F4F89EC94E053D0BB
:102470008B859C85F4019183808389859A859383DC
:1024800082838F819885958384838D819E81F501D8
:10249000918380838B819C819383828389819A81BC
:1024A000958384832C960FB6F894DEBF0FBECDBF04
:1024B000DF91CF911F910F91FF90EF90DF90CF9020
:1024C000BF90AF909F908F900895089589EC94E00D
:1024D00000C028E6FC01208308950F93062F23E017
:1024E00042E06AE1FC018081A4D10F9108950F932D
:1024F000062F22E044E06BE1FC0180819AD10F912C
:1025000008950F93062F22E044E06CE1FC018081E6
:1025100090D10F9108954F925F926F927F928F9218
:102520009F92AF92BF92CF92DF92EF92FF920F9362
:102530001F93CF93DF93EC013B014A01590128011E
:102540000091E6031091E7039C012F5F3F4F4EE09F
:102550006BE388819BD089819A8198278927982766
:10256000F301918380838B819C8198278927982709
:10257000F401918380838D819E81982789279827F4
:10258000F5019183808389859A85982789279827E3
:10259000F201918380838B859C85982789279827D2
:1025A000F701918380838D859E85982789279827B9
:1025B000F60191838083DF91CF911F910F91FF905E
:1025C000EF90DF90CF90BF90AF909F908F907F90D3
:1025D0006F905F904F900895262F46E06BE6FC01C8
:1025E0008081F9C00F93062F23E042E06BE6FC01E7
:1025F00080811FD10F910895CF93DF93EC0161E0AB
:10260000F1DF60E0CE0173DF60E0CE017ADF60E0F1
:10261000CE01DF91CF91E0CFFF920F931F93CF9325
:10262000DF93C62F042FF22E132F682F88ED94E02E
:10263000D4D16C2F88ED94E06DD1CF2DD12F0C0F1C
:102640001D2F111DC017D10729F0699188ED94E065
:1026500061D1F8CF88ED94E03DD291E0811190E016
:10266000892FDF91CF911F910F91FF900895CF9304
:10267000DF931F92CDB7DEB749839E012F5F3F4F97
:1026800041E0CADF0F90DF91CF9108952F923F92E2
:102690004F925F926F927F928F929F92AF92BF9272
:1026A000CF92DF92EF92FF920F931F93CF93DF931E
:1026B00000D0CDB7DEB7E82E69834B8369010E9455
:1026C000271C4B015C01F12C1A822B81222E312C0C
:1026D0002801712C612C8B81F81608F041C06E2DF9
:1026E00088ED94E07AD1698188ED94E013D188ED8A
:1026F00094E0F0D16E2D88ED94E06FD1A1014F19D7
:1027000051094132510514F040E250E06E2D88ED40
:1027100094E0DED188ED94E0D3D0892BD9F0011577
:10272000110569F488ED94E0D2D0F6019A81E90FA1
:10273000F11D97FDFA9580839F5F9A83EBCF0E94EE
:10274000271C681979098A099B096415750586058E
:10275000970540F38B81813208F080E2F80EBBCF01
:1027600001151105C1F00E94271C681979098A0911
:102770009B0930E020E0601771078207930758F04B
:102780002A81822F220F990B2B812817190619F005
:1027900014F08FEF8A838A810F900F900F90DF9152
:1027A000CF911F910F91FF90EF90DF90CF90BF904E
:1027B000AF909F908F907F906F905F904F903F90E1
:1027C0002F9008950F931F9389019A0141E05EDFD6
:1027D0001F910F910895EF92FF920F931F93CF9344
:1027E000DF931F92CDB7DEB7182F062FE42EF22EFF
:1027F0002091E6033091E703AE014F5F5F4FE2DFC8
:1028000081E090E001C0880FEA94EAF74981FF2057
:1028100069F0482B4983602F812F29DF0F90DF91CA
:10282000CF911F910F91FF90EF90089580954823CD
:10283000F1CFDF92EF92FF920F931F93CF93DF932D
:102840001F92CDB7DEB7F82EE62E142FD22E209190
:10285000E6033091E703AE014F5F5F4FB3DF88239C
:1028600051F1812F8D19990BAC014F5F5F4F81E0C2
:1028700090E002C0880F991FDA94E2F70197042EC6
:1028800001C0880F0A94EAF701C0000F4A95EAF7E1
:10289000482F4095998149238023482B49836E2DE9
:1028A0008F2DE5DE0F90DF91CF911F910F91FF905B
:1028B000EF90DF90089580E0F5CF90E080E00895FC
:1028C0008091080590910905891B990B08959091B5
:1028D0000905809108052FEF3FEF981748F4E92F7D
:1028E000F0E0E65FFA4F208130E09F5F90930905AA
:1028F000C9010895E091090580910805E81730F4B1
:10290000F0E0E65FFA4F808190E008958FEF9FEF4F
:1029100008950895CF93DF931F92CDB7DEB76983F3
:102920002091E4042223F9F02091E504203258F0AC
:1029300021E030E0FC013383228390E080E00F90BF
:10294000DF91CF9108958091E604E82FF0E0E951FE
:10295000FB4F998190838F5F8093E6048093E50419
:1029600081E090E0ECCF61E0CE01019683D1F8CF19
:10297000CF92DF92EF92FF920F931F93CF93DF934B
:102980007C01CB018A012091E404222389F0EB0130
:102990006B01C40ED51ECC15DD0561F06991D70120
:1029A000ED91FC910190F081E02DC7011995F3CFD5
:1029B000642F60D1C801DF91CF911F910F91FF90DB
:1029C000EF90DF90CF9008951092090510920805BE
:1029D0001092E6041092E50490C081E08093E40434
:1029E000609307051092E6041092E50408950F9392
:1029F000062F21E04091E50467EE74E08091070521
:102A0000E2D01092E6041092E5041092E4040F91D3
:102A100008954F925F926F927F92AF92BF92CF9242
:102A2000EF92FF920F931F93CF93DF935C01F62EEB
:102A3000D42F28013901EE2009F1CFDFCE2DC4308B
:102A400008F0C3E0C150B8F028E0C29FC0011124D3
:102A5000A301920104C056954795379527958A950D
:102A6000D2F7B901D501ED91FC910190F081E02DF3
:102A7000C5011995E7CF60E0C501B9DF4D2FD1320F
:102A800008F040E22C2D6AE075E08F2D54D01092B2
:102A9000090580930805DF91CF911F910F91FF9059
:102AA000EF90CF90BF90AF907F906F905F904F90DE
:102AB0000895CF92EF920F931F93C22EE12C00E066
:102AC00010E09801A6DF1F910F91EF90CF9008952D
:102AD00021E0EFCF61E08BCFE8EDF4E013821282CA
:102AE00088EE93E0A0E0B0E084839583A683B7836B
:102AF00088E094E09183808308951092970581E0A7
:102B0000809395051092940561E084E10E94161E61
:102B100061E085E10E94161EE9EBF0E080818E7F86
:102B2000808380818D7F80838CE08093B80085E4F2
:102B30008093BC000895413208F043C090919705FE
:102B40009111FCCF91E090939705209395052FEF7D
:102B500020932A0510926F05240F20936E05909301
:102B6000960590919605880F892B80939605809104
:102B70009405813009F51092940580919605809313
:102B8000BB008091BC0083FDF8CF85EC8093BC0036
:102B9000809197058130E1F380916F05841710F4DF
:102BA00040916F05A0E7B5E0962FFB018E2F891BA2
:102BB000841720F0842F089585EEE8CF8D918193BE
:102BC000F5CF40E0F7CF0F93413208F04BC0909122
:102BD00097059111FCCF92E090939705009395058E
:102BE0009FEF90932A0510926F0540936E05362F44
:102BF000A0E7B5E0FB019E2F931B941770F1109294
:102C0000960590919605880F892B80939605809163
:102C10009405813029F51092940580919605809352
:102C2000BB008091BC0083FDF8CF85EC8093BC0095
:102C3000222321F0809197058230D1F380912A05DB
:102C40008F3F91F080912A05803281F080912A0592
:102C5000803371F084E00F91089591919D93CBCFD3
:102C600085EEE4CF81E0F7CF80E0F5CF82E0F3CFCF
:102C700083E0F1CF20914C05260F3327331F2132FB
:102C80003105ECF420919705FC0190E080E02430C0
:102C900069F082E00895A0914C052191AC01425B5E
:102CA0005A4FA40FB52FB11D2C930196861798F398
:102CB00080914C05680F60934C0580E0089581E099
:102CC000089585ED8093BC008091BC0084FDFCCF0D
:102CD00010929705089585EC8093BC00109297059B
:102CE00008951F920F920FB60F9211240BB60F92F8
:102CF0002F933F934F935F936F937F938F939F9304
:102D0000AF93BF93EF93FF938091B900887F803694
:102D100009F44CC008F03FC0883209F4A8C028F577
:102D2000803109F49CC0C8F4882309F4F8C08830C5
:102D300009F495C0FF91EF91BF91AF919F918F9151
:102D40007F916F915F914F913F912F910F900BBEAB
:102D50000F900FBE0F901F901895883109F487C00F
:102D6000803241F780932A0514C0803409F49CC056
:102D700040F48033B9F38833E9F680932A05ABDF5A
:102D8000D9CF803509F484C0883509F495C08834DA
:102D900089F697DFCFCF883909F48CC038F58837AA
:102DA00029F050F4883611F0803721F683E08093C3
:102DB000970510922B0557C0883809F47BC08039DD
:102DC00019F0803809F0B6CF80912B05803208F0D9
:102DD00071C0E0912B0581E08E0F80932B058091CF
:102DE000BB00F0E0E45DFA4F80833DC0803B39F0EA
:102DF000E0F4803A09F479C0883A09F09BCF84E086
:102E00008093970510924D0510924C05E091920524
:102E1000F0919305199580914C0581110FC081E0C7
:102E200080934C0510924E0509C0803C09F475C092
:102E3000883C09F472C0883B09F07CCFE0914D05D5
:102E400081E08E0F80934D05F0E0E25BFA4F8081C8
:102E50008093BB0090914D0580914C0529C08091D5
:102E600096058093BB0085EC8093BC0063CF909166
:102E70006F0580916E05981758F5E0916F0581E018
:102E80008E0F80936F05F0E0E059FA4F8081E9CF13
:102E9000E0916F0581E08E0F80936F058091BB00FC
:102EA000F0E0E059FA4F808390916F0580916E05B4
:102EB0009817C8F285E8D8CFE0916F0581E08E0FB2
:102EC00080936F058091BB00F0E0E059FA4F80835A
:102ED0008091950581115DCF81E08093940584EA0E
:102EE0008093BC001092970525CFF5DE80912B05CD
:102EF000803230F4E0912B05F0E0E45DFA4F10826F
:102F000060912B0570E0E0919005F09191058CE2C5
:102F100095E0199510922B050DCF85ECE1CF10921D
:102F20002A0537CF26E030E040E855E260E070E067
:102F300090E080E000C010929905109298058930C9
:102F4000910508F03AC0FC018827E655F84E8F4FEE
:102F50000C944522B317BC17C517CE17D717DE1729
:102F6000E117E417EA1781E090E0909399058093C8
:102F7000980586EA95E079C782E090E090939905FC
:102F80008093980583E496E0F6CF84E090E09093F8
:102F900099058093980580EE96E0EDCF88E090E06B
:102FA00090939905809398058DE797E0E4CF80E1B1
:102FB00090E09093990580939805089580E290E0C1
:102FC000F8CF80E490E0F5CF80E890E09093990509
:102FD0008093980580919805909199059160E9CF2B
:102FE0001F920F920FB60F9211240BB60F922F93D0
:102FF0003F934F935F936F937F938F939F93AF9381
:10300000BF93EF93FF938FE89DEF909325018093FB
:10301000240134D0FF91EF91BF91AF919F918F9197
:103020007F916F915F914F913F912F910F900BBEC8
:103030000F900FBE0F901F9018958FE89DEF909303
:10304000250180932401A3E7B0E08C918E7F8C93BF
:10305000E0E2F1E080818C7F8083E1E2F1E0808139
:10306000877E808380818460808380818C7F808361
:103070008C9181608C93089581E0089580919A05E8
:1030800091E0980F90939A05882349F021E030E071
:1030900030939C0520939B0580939A05089578941E
:1030A0000E944604F89480919A058150F5CFCF9301
:1030B000DF931092D3081092D208E0D333DFC0918F
:1030C000FA03D091FB03198218820E94970DF8949D
:1030D000B4DF81E028813981232B09F080E08093DF
:1030E000D208789478948091D208811108C00E9407
:1030F000B50EF89490E080E0DF91CF91089581E0E3
:1031000028813981232B09F480E08093D3089091A2
:10311000D30881E0911180E08093D208ADDFE3CF46
:103120005058BB27AA270ED086C277D230F07CD267
:1031300020F031F49F3F11F41EF447C20EF4E095E5
:10314000E7FB14C2E92F88D280F3BA17620773072E
:103150008407950718F071F49EF5B7C20EF4E09558
:103160000B2EBA2FA02D0B01B90190010C01CA0141
:10317000A0011124FF27591B99F0593F50F4503EEC
:1031800068F11A16F040A22F232F342F4427585FDE
:10319000F3CF469537952795A795F0405395C9F7F6
:1031A0007EF41F16BA0B620B730B840BBAF09150AE
:1031B000A1F0FF0FBB1F661F771F881FC2F70EC04D
:1031C000BA0F621F731F841F48F487957795679520
:1031D000B795F7959E3F08F0B3CF9395880F08F009
:1031E0009927EE0F97958795089517D258F080E8A4
:1031F00091E009F49EEF18D228F040E851E059F42C
:103200005EEF09C0E2C161C2E92FE07825D268F320
:10321000092E052AC1F3261737074807590738F042
:103220000E2E07F8E02569F0E025E0640AC0EF63A0
:1032300007F8009407FADB01B9019D01DC01CA011E
:10324000AD01EF9347D0F7D10AD05F91552331F00C
:103250002BED3FE049E450FD49EC63CF0895DF9347
:10326000DD27B92FBF7740E85FE31616170648073A
:103270005B0710F4D92F34D29F938F937F936F9372
:1032800099D2E4EEF0E0A4D1D6D12F913F914F91A5
:103290005F9139D2DD2349F09058A2EA2AED3FE050
:1032A00049EC5FE3D0785D274DDFDF91C4C13AD1AF
:1032B00008F481E008950CD0BEC1B6D140F0ADD184
:1032C00030F021F45F3F19F051C15111FFC17DC1B0
:1032D000C3D198F39923C9F35523B1F3951B550B2B
:1032E000BB27AA2762177307840738F09F5F5F4FD9
:1032F000220F331F441FAA1FA9F333D00E2E3AF01A
:10330000E0E830D091505040E695001CCAF729D033
:10331000FE2F27D0660F771F881FBB1F2617370782
:103320004807AB07B0E809F0BB0B802DBF01FF27B2
:1033300093585F4F2AF09E3F510568F017C1C6C1F0
:103340005F3FECF3983EDCF3869577956795B795EC
:10335000F7959F5FC9F7880F911D9695879597F907
:103360000895E1E0660F771F881FBB1F6217730780
:103370008407BA0720F0621B730B840BBA0BEE1F95
:1033800088F7E095089504D06894B1119FC108951D
:103390006BD188F09F5790F0B92F9927B751A0F0C3
:1033A000D1F0660F771F881F991F1AF0BA95C9F7D9
:1033B00012C0B13081F089D1B1E0089586C1672F84
:1033C000782F8827B85F39F0B93FCCF38695779589
:1033D0006795B395D9F73EF4909580957095619572
:1033E0007F4F8F4F9F4F0895E89409C097FB3EF49D
:1033F00090958095709561957F4F8F4F9F4F992342
:10340000A9F0F92F96E9BB279395F69587957795BF
:103410006795B795F111F8CFFAF4BB0F11F460FF7F
:103420001BC06F5F7F4F8F4F9F4F16C0882311F0D7
:1034300096E911C0772321F09EE8872F762F05C0EB
:10344000662371F096E8862F70E060E02AF09A9586
:10345000660F771F881FDAF7880F9695879597F97B
:1034600008951CD180F09F3740F491110EF02EC1C9
:1034700060E070E080E89FEB089526F41B16611D64
:10348000711D811D79C093C0C8D018F011F0CCD047
:1034900038F49BC01BC1E92FDFD0B0F35523C9F32B
:1034A000E7FB6217730784079507A8F199F3E92FE3
:1034B000FF2788232AF03197660F771F881FDAF7D6
:1034C000952F5527442332F091505040220F331F3F
:1034D000441FD2F7BB27E91BF50B621B730B840B50
:1034E000B109C1F222F4620F731F841FB11D31971D
:1034F0002AF0660F771F881FBB1FEFCF91505040F7
:103500005AF041F0882332F0660F771F881F9150E0
:103510005040C1F793954BC08695779567959F5F0F
:10352000D9F7F8CF990F0008550FAA0BE0E8FEEF86
:1035300016161706E807F907C0F012161306E40777
:10354000F50798F0621B730B840B950B39F40A2670
:1035500061F0232B242B252B21F408950A2609F44E
:10356000A140A6958FEF811D811D089597F99F6752
:1035700080E870E060E00895882371F4772321F0FB
:103580009850872B762F07C0662311F499270DC01A
:103590009051862B70E060E02AF09A95660F771FB5
:1035A000881FDAF7880F9695879597F908959F3FBA
:1035B00031F0915020F4879577956795B795880FEE
:1035C000911D9695879597F908959FEF80EC089542
:1035D000DF93CF931F930F93FF92EF92DF927B01C4
:1035E0008C01689405C0DA2EEF018DD0FE01E894BD
:1035F000A5912591359145915591AEF3EF01A2DD4D
:10360000FE019701A801DA9479F7DF90EF90FF901F
:103610000F911F91CF91DF91089500240A941616FF
:10362000170618060906089500240A9412161306B0
:10363000140605060895092E0394000C11F488233E
:1036400052F0BB0F40F4BF2B11F460FF04C06F5F5A
:103650007F4F8F4F9F4F089557FD9058440F551F30
:1036600059F05F3F71F04795880F97FB991F61F004
:103670009F3F79F087950895121613061406551F7B
:10368000F2CF4695F1DF08C0161617061806991FE7
:10369000F1CF86957105610508940895E5DFA0F0E6
:1036A000BEE7B91788F4BB279F3860F41616B11D22
:1036B000672F782F8827985FF7CF8695779567953E
:1036C000B11D93959639C8F30895E894BB276627F2
:1036D0007727CB0197F9089525DF08F48FEF089538
:1036E0009B01AC0160E070E080E89FE3E4CD0BD08B
:1036F000A2CF93DF28F098DF18F0952309F036CF9A
:1037000064CF1124E3CFA8DFA0F3959FD1F3950FE9
:1037100050E0551F629FF001729FBB27F00DB11D55
:10372000639FAA27F00DB11DAA1F649F6627B00DE5
:10373000A11D661F829F2227B00DA11D621F739FCE
:10374000B00DA11D621F839FA00D611D221F749FDC
:103750003327A00D611D231F849F600D211D822F23
:10376000762F6A2F11249F5750408AF0E1F088236A
:103770004AF0EE0FFF1FBB1F661F771F881F915077
:103780005040A9F79E3F510570F0F0CE9FCF5F3FAC
:10379000ECF3983EDCF3869577956795B795F795AA
:1037A000E7959F5FC1F7FE2B880F911D9695879532
:1037B00097F908959B01AC019ACF1F920F920FB613
:1037C0000F9211242F933F938F939F93AF93BF93A7
:1037D00080919E0590919F05A091A005B091A105B3
:1037E00030919D0523E0230F2D3758F50196A11D3B
:1037F000B11D20939D0580939E0590939F05A093F6
:10380000A005B093A1058091A2059091A305A09178
:10381000A405B091A5050196A11DB11D8093A20537
:103820009093A305A093A405B093A505BF91AF9174
:103830009F918F913F912F910F900FBE0F901F90EE
:10384000189526E8230F0296A11DB11DD2CF2FB7E0
:10385000F89460919E0570919F058091A0059091CC
:10386000A1052FBF08958230910538F0880F991F68
:10387000880F991F05970197F1F70895789484B5FB
:10388000826084BD84B5816084BD85B5826085BD5C
:1038900085B5816085BDEEE6F0E080818160808342
:1038A000E1E8F0E010828081826080838081816025
:1038B0008083E0E8F0E0808181608083E1EBF0E0EC
:1038C000808184608083E0EBF0E080818160808390
:1038D000E1E9F0E080818260808380818160808383
:1038E000E0E9F0E0808181608083E1EAF0E08081BE
:1038F00082608083808181608083E0EAF0E0808163
:1039000081608083E1E2F1E0808182608083808158
:1039100081608083E0E2F1E0808181608083EAE77A
:10392000F0E08081846080838081826080838081F8
:10393000816080838081806880831092C1000895B7
:103940001F93CF93DF93182FEB0161E033D12097C2
:1039500031F460E0812FDF91CF911F9167C1CF3F9C
:10396000D10511F461E0F6CFE12FF0E0EE5EFE4FFD
:10397000E491E150E23108F0B2C0F0E08827ED5365
:10398000F34E8F4F82C5D51CDD1CE21CEC1CF61CCF
:103990006F1D001D081D101D1A1D241D2E1D3D1D0F
:1039A000471D6F1D511D5B1D651D84B5806884BD5D
:1039B000C7BDDF91CF911F91089584B5806284BD0A
:1039C000C8BDF7CF80918000806880938000D0933D
:1039D0008900C0938800EDCF809180008062809341
:1039E0008000D0938B00C0938A00E3CF8091800049
:1039F000886080938000D0938D00C0938C00D9CFD5
:103A00008091B00080688093B000C093B300D1CFA4
:103A10008091B00080628093B000C093B400C9CFA1
:103A200080919000806880939000D0939900C0931B
:103A30009800BFCF80919000806280939000D093D7
:103A40009B00C0939A00B5CF8091900088608093CE
:103A50009000D0939D00C0939C00ABCF8091A000BC
:103A600080688093A0008091A0008F7B8093A0004D
:103A7000D093A900C093A8009CCF8091A000806241
:103A80008093A000D093AB00C093AA0092CF809106
:103A9000A00088608093A000D093AD00C093AC00DC
:103AA00088CF80912001806880932001D0932901E4
:103AB000C09328017ECF80912001806280932001F5
:103AC000D0932B01C0932A0174CF8091200188608C
:103AD00080932001D0932D01C0932C016ACFC03870
:103AE000D1050CF03FCF35CF8150823108F059C05D
:103AF000E82FF0E08827E158F24E8F4FC6C49F1D93
:103B0000A31D911D971D9B1DD11DA61DAC1DB01D94
:103B1000B61DBA1DBE1DC41DC81DD11DCC1DD21D94
:103B2000D61D809180008F778093800008958091CA
:103B300080008F7DF9CF80918000877FF5CF84B59D
:103B40008F7784BD089584B58F7DFBCF8091B000C1
:103B50008F778093B00008958091B0008F7DF9CF6A
:103B6000809190008F7780939000089580919000CD
:103B70008F7DF9CF80919000877FF5CF8091A00055
:103B80008F778093A00008958091A0008F7DF9CF5A
:103B90008091A000877FF5CF809120018F7780935F
:103BA00020010895809120018F7DF9CF809120011F
:103BB000877FF5CFCF93DF9390E0FC01E85AFE4F6B
:103BC000249182569E4FFC0184918823C9F090E095
:103BD000880F991FFC01E85EFD4FA591B491FC018F
:103BE000E250FE4FC591D49161110DC09FB7F8947A
:103BF0008C91209582238C938881282328839FBFD2
:103C0000DF91CF910895623051F49FB7F8943C91C1
:103C1000822F809583238C93E8812E2BEFCF8FB753
:103C2000F894EC912E2B2C938FBFEACF1F93CF9358
:103C3000DF93282F30E0F901EE5EFE4F8491F90109
:103C4000E85AFE4FD491F901E256FE4FC491CC23BD
:103C5000A1F0162F811148DFEC2FF0E0EE0FFF1FCF
:103C6000E250FE4FA591B4918FB7F894EC911111E9
:103C700008C0D095DE23DC938FBFDF91CF911F91D9
:103C80000895DE2BF8CFCF93DF93282F30E0F90192
:103C9000EE5EFE4F8491F901E85AFE4FD491F9018E
:103CA000E256FE4FC491CC2399F081111DDFEC2F19
:103CB000F0E0EE0FFF1FEC51FE4FA591B491EC9197
:103CC000ED2381E090E009F480E0DF91CF91089549
:103CD00080E090E0FACFFC01918D228D892F90E059
:103CE000805C9F4F821B91098F7399270895FC0177
:103CF000918D828D981731F0828DE80FF11D858DA1
:103D000090E008958FEF9FEF0895FC01918D828DD3
:103D1000981761F0A28DAE0FBF2FB11D5D968C91EB
:103D2000928D9F5F9F73928F90E008958FEF9FEF2A
:103D30000895FC01538D448D252F30E0842F90E0B1
:103D4000821B930B541710F0CF9608950197089596
:103D5000FC01A48DA80FB92FB11DA35ABF4F2C9100
:103D6000848D90E001968F739927848FA689B789F7
:103D70002C93A089B1898C91837080648C93938DEE
:103D8000848D981306C00288F389E02D80818F7D91
:103D900080830895CF93DF93EC01888D8823B1F061
:103DA000AA89BB89E889F9898C9185FD03C0808146
:103DB00086FD0CC00FB607FCF7CF8C9185FFF2CFC4
:103DC000808185FFEDCFCE01C3DFEACFDF91CF91B8
:103DD0000895EF92FF920F931F93CF93DF93EC011F
:103DE00081E0888F9B8D8C8D98131AC0E889F989A2
:103DF000808185FF15C09FB7F894EE89FF896083A5
:103E0000E889F98980818370806480839FBF81E025
:103E100090E0DF91CF911F910F91FF90EF90089567
:103E2000F62E0B8D10E00F5F1F4F0F731127E02E42
:103E30008C8D8E110BC00FB607FCFACFE889F9897B
:103E4000808185FFF5CFCE0183DFF2CFEB8DEC0FC4
:103E5000FD2FF11DE35AFF4FF0829FB7F8940B8FAF
:103E6000EA89FB8980818062D0CFCF92DF92EF9286
:103E7000FF921F93CF93DF93EC016A017B01122F16
:103E8000E889F98982E08083C11481EED806E104D3
:103E9000F10499F060E079E08DE390E0A7019601EC
:103EA000D2D221503109410951095695479537958C
:103EB0002795211580E1380790F0E889F98910826B
:103EC00060E874E88EE190E0A7019601BCD2215031
:103ED0003109410951095695479537952795EC8544
:103EE000FD853083EE85FF852083188EEC89FD8962
:103EF0001083EA89FB89808180618083EA89FB895C
:103F0000808188608083EA89FB89808180688083E2
:103F1000EA89FB8980818F7D8083DF91CF911F911A
:103F2000FF90EF90DF90CF900895CF93DF93EC0157
:103F3000E881F9810680F781E02D1995EA89FB89EE
:103F400080818F7E8083EA89FB898081877F80835F
:103F5000EA89FB8980818F778083EA89FB89808168
:103F60008F7D80838A8D898FDF91CF9108951F92F5
:103F70000F920FB60F9211240BB60F922F938F93BF
:103F80009F93EF93FF93E091B605F091B705808181
:103F9000E091BC05F091BD0582FD1DC0908180912E
:103FA000BF058F5F8F732091C005821741F0E091AC
:103FB000BF05F0E0EA55FA4F958F8093BF05FF915A
:103FC000EF919F918F912F910F900BBE0F900FBE8D
:103FD0000F901F9018958081F2CF1F920F920FB60D
:103FE0000F9211240BB60F922F933F934F935F9331
:103FF0006F937F938F939F93AF93BF93EF93FF93B1
:1040000086EA95E0A5DEFF91EF91BF91AF919F9178
:104010008F917F916F915F914F913F912F910F9071
:104020000BBE0F900FBE0F901F901895E6EAF5E0BB
:104030001382128288EE93E0A0E0B0E0848395833F
:10404000A683B7838AE194E09183808385EC90E036
:104050009587848784EC90E09787868780EC90E052
:10406000918B808B81EC90E0938B828B82EC90E043
:10407000958B848B86EC90E0978B868B118E128EBD
:10408000138E148E08951F920F920FB60F92112463
:104090000BB60F922F938F939F93EF93FF93E09123
:1040A0005306F09154068081E0915906F0915A062A
:1040B00082FD1DC0908180915C068F5F8F7320917F
:1040C0005D06821741F0E0915C06F0E0ED5BF94F90
:1040D000958F80935C06FF91EF919F918F912F9127
:1040E0000F900BBE0F900FBE0F901F901895808100
:1040F000F2CF1F920F920FB60F9211240BB60F92B0
:104100002F933F934F935F936F937F938F939F93DF
:10411000AF93BF93EF93FF9383E496E019DEFF9193
:10412000EF91BF91AF919F918F917F916F915F912F
:104130004F913F912F910F900BBE0F900FBE0F909C
:104140001F901895E3E4F6E01382128288EE93E064
:10415000A0E0B0E084839583A683B7838AE194E0EE
:10416000918380838DEC90E0958784878CEC90E040
:104170009787868788EC90E0918B808B89EC90E024
:10418000938B828B8AEC90E0958B848B8EEC90E005
:10419000978B868B118E128E138E148E08951F921C
:1041A0000F920FB60F9211240BB60F922F938F938D
:1041B0009F93EF93FF93E091F006F091F1068081D9
:1041C000E091F606F091F70682FD1DC09081809186
:1041D000F9068F5F8F732091FA06821741F0E09104
:1041E000F906F0E0E052F94F958F8093F906FF91C0
:1041F000EF919F918F912F910F900BBE0F900FBE5B
:104200000F901F9018958081F2CF1F920F920FB6DA
:104210000F9211240BB60F922F933F934F935F93FE
:104220006F937F938F939F93AF93BF93EF93FF937E
:1042300080EE96E08DDDFF91EF91BF91AF919F9160
:104240008F917F916F915F914F913F912F910F903F
:104250000BBE0F900FBE0F901F901895E0EEF6E08A
:104260001382128288EE93E0A0E0B0E0848395830D
:10427000A683B7838AE194E09183808385ED90E003
:104280009587848784ED90E09787868780ED90E01E
:10429000918B808B81ED90E0938B828B82ED90E00F
:1042A000958B848B86ED90E0978B868B118E128E8A
:1042B000138E148E08951F920F920FB60F92112431
:1042C0000BB60F922F938F939F93EF93FF93E091F1
:1042D0008D07F0918E078081E0919307F09194070C
:1042E00082FD1DC09081809196078F5F8F73209112
:1042F0009707821741F0E0919607F0E0E358F84FF6
:10430000958F80939607FF91EF919F918F912F91B9
:104310000F900BBE0F900FBE0F901F9018958081CD
:10432000F2CF1F920F920FB60F9211240BB60F927D
:104330002F933F934F935F936F937F938F939F93AD
:10434000AF93BF93EF93FF938DE797E001DDFF916C
:10435000EF91BF91AF919F918F917F916F915F91FD
:104360004F913F912F910F900BBE0F900FBE0F906A
:104370001F901895EDE7F7E01382128288EE93E024
:10438000A0E0B0E084839583A683B7838AE194E0BC
:104390009183808385E391E09587848784E391E02E
:1043A0009787868780E391E0918B808B81E391E012
:1043B000938B828B82E391E0958B848B86E391E0F3
:1043C000978B868B118E128E138E148E0895AF925A
:1043D000BF92CF92DF92EF92FF920F931F93CF93F2
:1043E000DF936C017B018B01040F151FEB015E0154
:1043F000AE18BF08C017D10759F06991D601ED91E9
:10440000FC910190F081E02DC6011995892B79F777
:10441000C501DF91CF911F910F91FF90EF90DF9039
:10442000CF90BF90AF900895DB018F939F9350D0B2
:10443000BF91AF91A29F800D911DA39F900DB29F40
:10444000900D11240895A1E21A2EAA1BBB1BFD0199
:104450000DC0AA1FBB1FEE1FFF1FA217B307E40763
:10446000F50720F0A21BB30BE40BF50B661F771FBB
:10447000881F991F1A9469F760957095809590959B
:104480009B01AC01BD01CF010895EE0FFF1F881FF6
:104490008BBF0790F691E02D199405D0332312F4C9
:1044A0008A1B9B0B10C0A29FB001B39FC001A39FAA
:1044B000700D811D1124911DB29F700D811D11245D
:1044C000911D0895F0DFB7FF0895821B930B0895A7
:1044D000EADFA59F900DB49F900DA49F800D911DC4
:1044E000112408950F931F93CF93DF93869F80012C
:1044F000879F100D969F100D1124C8010DD0EC015F
:10450000009721F0A80170E060E02BD1CE01DF918F
:10451000CF911F910F9108950F931F93CF93DF9326
:104520008230910510F482E090E0E091D608F0919D
:10453000D70830E020E0B0E0A0E0309799F42115F2
:10454000310509F44AC0281B390B24303105D8F550
:104550008A819B816115710589F1FB0193838283B7
:10456000FE0111C040815181028113814817590712
:10457000E0F04817590799F4109761F012960C93E0
:10458000129713961C933296CF01DF91CF911F9112
:104590000F9108950093D6081093D708F4CF2115F2
:1045A000310551F04217530738F0A901DB019A0198
:1045B000BD01DF01F801C1CFEF01F9CF9093D7081A
:1045C0008093D608CDCFFE01E20FF31F8193919324
:1045D0002250310939832883D7CF2091D4083091D4
:1045E000D508232B41F4209102023091030230932D
:1045F000D5082093D40820910002309101022115A2
:10460000310541F42DB73EB74091040250910502A7
:10461000241B350BE091D408F091D508E217F3077D
:10462000A0F42E1B3F0B2817390778F0AC014E5F22
:104630005F4F2417350748F04E0F5F1F5093D50882
:104640004093D408819391939FCFF0E0E0E09CCF1A
:10465000CF93DF930097E9F0FC0132971382128227
:10466000A091D608B091D708ED0130E020E0109776
:10467000A1F420813181820F931F2091D4083091C1
:10468000D5082817390709F061C0F093D508E093E1
:10469000D408DF91CF910895EA01CE17DF07E8F53E
:1046A0004A815B819E0141155105B1F7E901FB8308
:1046B000EA8349915991C40FD51FEC17FD0761F4A6
:1046C000808191810296840F951FE90199838883E7
:1046D000828193819B838A83F0E0E0E012968D9142
:1046E0009C9113970097B9F52D913C911197CD01AD
:1046F0000296820F931F2091D4083091D508281775
:10470000390739F6309751F51092D7081092D6082C
:10471000B093D508A093D408BCCFD383C283408183
:104720005181840F951FC817D90761F44E5F5F4F01
:1047300088819981480F591F518340838A819B81C9
:10474000938382832115310509F0B0CFF093D70808
:10475000E093D6089ECFFD01DC01C0CF1382128208
:10476000D7CFDC0101C06D9341505040E0F7089570
:04477000F894FFCFEB
:104774000000D80880000000803F0AD7233C0000D6
:10478400A0410000803F000040400000803F000046
:104794000000000000000000000000000000000015
:1047A4000000000000000000000000000000000005
:1047B4000000000000009A9931410000004100000F
:1047C400804300007F43E54B323DA6C8B74100005B
:1047D4000000000000000000803F0000803F000057
:1047E400000000000000000000000000803F000006
:1047F400803F000000000000C8420000C8420000E2
:1048040000000000000000000000000000000AD7C3
:10481400233C0000000035FA8E3C333353403333DD
:10482400333F0000000000002041000000000000B1
:104834000000000000000000000000000000000074
:104844000000000000005A8428430000000000001B
:104854000000000000000000FA4300000000000017
:1048640080BF000000800000000035FA8E3C35FA5D
:104874008E3C0000803F000000000000008000002B
:10488400000077CA73BE98D256C2750993BF597592
:10489400C2C000000000A6C8B74135FA8E3C0AD752
:1048A400233C0000000000000000602FB23C000028
:1048B400803F856E7ABF00000000E12E6542000053
:1048C400B4408988083D0000B4408988083D000050
:1048D400803F0000000000000000000080BF8FC285
:1048E400F53C000000000000000000000000000093
:1048F40000000000803F00000000000000000000F5
:1049040080BF8FC2F53C00000000000000000000E2
:104914000000000000000000803F000080BF000095
:1049240080BF35FA8E3C127D004000400000803F7D
:104934000000803F0AD7233C000000000000000074
:104944000000803F000AD7233C0000000000000064
:10495400000000803F00E80346697865645374658D
:10496400704469736372657465002804A605430680
:10497400E0067D07000000008A14B8145D14891451
:10498400601467147A1400000000E91EE721991EE0
:08499400CA1E6B1E851E771E72
:00000001FF
